{
	"vote.sol": {
		"Vote": {
			"abi": [
				{
					"inputs": [
						{
							"internalType": "string[]",
							"name": "_candidates",
							"type": "string[]"
						}
					],
					"stateMutability": "nonpayable",
					"type": "constructor"
				},
				{
					"inputs": [
						{
							"internalType": "uint256",
							"name": "",
							"type": "uint256"
						}
					],
					"name": "candidates",
					"outputs": [
						{
							"internalType": "string",
							"name": "",
							"type": "string"
						}
					],
					"stateMutability": "view",
					"type": "function"
				},
				{
					"inputs": [
						{
							"internalType": "string",
							"name": "_candidate",
							"type": "string"
						}
					],
					"name": "vote",
					"outputs": [],
					"stateMutability": "nonpayable",
					"type": "function"
				},
				{
					"inputs": [
						{
							"internalType": "uint256",
							"name": "",
							"type": "uint256"
						}
					],
					"name": "voters",
					"outputs": [
						{
							"internalType": "address",
							"name": "",
							"type": "address"
						}
					],
					"stateMutability": "view",
					"type": "function"
				},
				{
					"inputs": [
						{
							"internalType": "string",
							"name": "",
							"type": "string"
						}
					],
					"name": "votes",
					"outputs": [
						{
							"internalType": "uint256",
							"name": "",
							"type": "uint256"
						}
					],
					"stateMutability": "view",
					"type": "function"
				}
			],
			"devdoc": {
				"kind": "dev",
				"methods": {},
				"version": 1
			},
			"evm": {
				"assembly": "    /* \"vote.sol\":70:721  contract Vote {... */\n  mstore(0x40, 0x80)\n    /* \"vote.sol\":197:281  constructor(string[] memory _candidates) {... */\n  callvalue\n  dup1\n  iszero\n  tag_1\n  jumpi\n  0x00\n  dup1\n  revert\ntag_1:\n  pop\n  mload(0x40)\n  sub(codesize, bytecodeSize)\n  dup1\n  bytecodeSize\n  dup4\n  codecopy\n  dup2\n  dup2\n  add\n  0x40\n  mstore\n  dup2\n  add\n  swap1\n  tag_2\n  swap2\n  swap1\n  tag_3\n  jump\t// in\ntag_2:\n    /* \"vote.sol\":262:273  _candidates */\n  dup1\n    /* \"vote.sol\":249:259  candidates */\n  0x00\n    /* \"vote.sol\":249:273  candidates = _candidates */\n  swap1\n  dup1\n  mload\n  swap1\n  0x20\n  add\n  swap1\n  tag_6\n  swap3\n  swap2\n  swap1\n  tag_7\n  jump\t// in\ntag_6:\n  pop\n    /* \"vote.sol\":197:281  constructor(string[] memory _candidates) {... */\n  pop\n    /* \"vote.sol\":70:721  contract Vote {... */\n  jump(tag_8)\ntag_7:\n  dup3\n  dup1\n  sload\n  dup3\n  dup3\n  sstore\n  swap1\n  0x00\n  mstore\n  keccak256(0x00, 0x20)\n  swap1\n  dup2\n  add\n  swap3\n  dup3\n  iszero\n  tag_9\n  jumpi\n  swap2\n  0x20\n  mul\n  dup3\n  add\ntag_10:\n  dup3\n  dup2\n  gt\n  iszero\n  tag_11\n  jumpi\n  dup3\n  mload\n  dup3\n  swap1\n  dup2\n  tag_12\n  swap2\n  swap1\n  tag_13\n  jump\t// in\ntag_12:\n  pop\n  swap2\n  0x20\n  add\n  swap2\n  swap1\n  0x01\n  add\n  swap1\n  jump(tag_10)\ntag_11:\ntag_9:\n  pop\n  swap1\n  pop\n  tag_14\n  swap2\n  swap1\n  tag_15\n  jump\t// in\ntag_14:\n  pop\n  swap1\n  jump\t// out\ntag_15:\ntag_16:\n  dup1\n  dup3\n  gt\n  iszero\n  tag_17\n  jumpi\n  0x00\n  dup2\n  dup2\n  tag_18\n  swap2\n  swap1\n  tag_19\n  jump\t// in\ntag_18:\n  pop\n  0x01\n  add\n  jump(tag_16)\ntag_17:\n  pop\n  swap1\n  jump\t// out\ntag_19:\n  pop\n  dup1\n  sload\n  tag_20\n  swap1\n  tag_21\n  jump\t// in\ntag_20:\n  0x00\n  dup3\n  sstore\n  dup1\n  0x1f\n  lt\n  tag_23\n  jumpi\n  pop\n  jump(tag_22)\ntag_23:\n  0x1f\n  add\n  0x20\n  swap1\n  div\n  swap1\n  0x00\n  mstore\n  keccak256(0x00, 0x20)\n  swap1\n  dup2\n  add\n  swap1\n  tag_24\n  swap2\n  swap1\n  tag_25\n  jump\t// in\ntag_24:\ntag_22:\n  pop\n  jump\t// out\ntag_25:\ntag_26:\n  dup1\n  dup3\n  gt\n  iszero\n  tag_27\n  jumpi\n  0x00\n  dup2\n  0x00\n  swap1\n  sstore\n  pop\n  0x01\n  add\n  jump(tag_26)\ntag_27:\n  pop\n  swap1\n  jump\t// out\n    /* \"#utility.yul\":7:82   */\ntag_28:\n    /* \"#utility.yul\":40:46   */\n  0x00\n    /* \"#utility.yul\":73:75   */\n  0x40\n    /* \"#utility.yul\":67:76   */\n  mload\n    /* \"#utility.yul\":57:76   */\n  swap1\n  pop\n    /* \"#utility.yul\":7:82   */\n  swap1\n  jump\t// out\n    /* \"#utility.yul\":88:205   */\ntag_29:\n    /* \"#utility.yul\":197:198   */\n  0x00\n    /* \"#utility.yul\":194:195   */\n  dup1\n    /* \"#utility.yul\":187:199   */\n  revert\n    /* \"#utility.yul\":211:328   */\ntag_30:\n    /* \"#utility.yul\":320:321   */\n  0x00\n    /* \"#utility.yul\":317:318   */\n  dup1\n    /* \"#utility.yul\":310:322   */\n  revert\n    /* \"#utility.yul\":334:451   */\ntag_31:\n    /* \"#utility.yul\":443:444   */\n  0x00\n    /* \"#utility.yul\":440:441   */\n  dup1\n    /* \"#utility.yul\":433:445   */\n  revert\n    /* \"#utility.yul\":457:559   */\ntag_32:\n    /* \"#utility.yul\":498:504   */\n  0x00\n    /* \"#utility.yul\":549:551   */\n  0x1f\n    /* \"#utility.yul\":545:552   */\n  not\n    /* \"#utility.yul\":540:542   */\n  0x1f\n    /* \"#utility.yul\":533:538   */\n  dup4\n    /* \"#utility.yul\":529:543   */\n  add\n    /* \"#utility.yul\":525:553   */\n  and\n    /* \"#utility.yul\":515:553   */\n  swap1\n  pop\n    /* \"#utility.yul\":457:559   */\n  swap2\n  swap1\n  pop\n  jump\t// out\n    /* \"#utility.yul\":565:745   */\ntag_33:\n    /* \"#utility.yul\":613:690   */\n  0x4e487b7100000000000000000000000000000000000000000000000000000000\n    /* \"#utility.yul\":610:611   */\n  0x00\n    /* \"#utility.yul\":603:691   */\n  mstore\n    /* \"#utility.yul\":710:714   */\n  0x41\n    /* \"#utility.yul\":707:708   */\n  0x04\n    /* \"#utility.yul\":700:715   */\n  mstore\n    /* \"#utility.yul\":734:738   */\n  0x24\n    /* \"#utility.yul\":731:732   */\n  0x00\n    /* \"#utility.yul\":724:739   */\n  revert\n    /* \"#utility.yul\":751:1032   */\ntag_34:\n    /* \"#utility.yul\":834:861   */\n  tag_71\n    /* \"#utility.yul\":856:860   */\n  dup3\n    /* \"#utility.yul\":834:861   */\n  tag_32\n  jump\t// in\ntag_71:\n    /* \"#utility.yul\":826:832   */\n  dup2\n    /* \"#utility.yul\":822:862   */\n  add\n    /* \"#utility.yul\":964:970   */\n  dup2\n    /* \"#utility.yul\":952:962   */\n  dup2\n    /* \"#utility.yul\":949:971   */\n  lt\n    /* \"#utility.yul\":928:946   */\n  0xffffffffffffffff\n    /* \"#utility.yul\":916:926   */\n  dup3\n    /* \"#utility.yul\":913:947   */\n  gt\n    /* \"#utility.yul\":910:972   */\n  or\n    /* \"#utility.yul\":907:995   */\n  iszero\n  tag_72\n  jumpi\n    /* \"#utility.yul\":975:993   */\n  tag_73\n  tag_33\n  jump\t// in\ntag_73:\n    /* \"#utility.yul\":907:995   */\ntag_72:\n    /* \"#utility.yul\":1015:1025   */\n  dup1\n    /* \"#utility.yul\":1011:1013   */\n  0x40\n    /* \"#utility.yul\":1004:1026   */\n  mstore\n    /* \"#utility.yul\":794:1032   */\n  pop\n    /* \"#utility.yul\":751:1032   */\n  pop\n  pop\n  jump\t// out\n    /* \"#utility.yul\":1038:1167   */\ntag_35:\n    /* \"#utility.yul\":1072:1078   */\n  0x00\n    /* \"#utility.yul\":1099:1119   */\n  tag_75\n  tag_28\n  jump\t// in\ntag_75:\n    /* \"#utility.yul\":1089:1119   */\n  swap1\n  pop\n    /* \"#utility.yul\":1128:1161   */\n  tag_76\n    /* \"#utility.yul\":1156:1160   */\n  dup3\n    /* \"#utility.yul\":1148:1154   */\n  dup3\n    /* \"#utility.yul\":1128:1161   */\n  tag_34\n  jump\t// in\ntag_76:\n    /* \"#utility.yul\":1038:1167   */\n  swap2\n  swap1\n  pop\n  jump\t// out\n    /* \"#utility.yul\":1173:1494   */\ntag_36:\n    /* \"#utility.yul\":1260:1264   */\n  0x00\n    /* \"#utility.yul\":1350:1368   */\n  0xffffffffffffffff\n    /* \"#utility.yul\":1342:1348   */\n  dup3\n    /* \"#utility.yul\":1339:1369   */\n  gt\n    /* \"#utility.yul\":1336:1392   */\n  iszero\n  tag_78\n  jumpi\n    /* \"#utility.yul\":1372:1390   */\n  tag_79\n  tag_33\n  jump\t// in\ntag_79:\n    /* \"#utility.yul\":1336:1392   */\ntag_78:\n    /* \"#utility.yul\":1422:1426   */\n  0x20\n    /* \"#utility.yul\":1414:1420   */\n  dup3\n    /* \"#utility.yul\":1410:1427   */\n  mul\n    /* \"#utility.yul\":1402:1427   */\n  swap1\n  pop\n    /* \"#utility.yul\":1482:1486   */\n  0x20\n    /* \"#utility.yul\":1476:1480   */\n  dup2\n    /* \"#utility.yul\":1472:1487   */\n  add\n    /* \"#utility.yul\":1464:1487   */\n  swap1\n  pop\n    /* \"#utility.yul\":1173:1494   */\n  swap2\n  swap1\n  pop\n  jump\t// out\n    /* \"#utility.yul\":1500:1617   */\ntag_37:\n    /* \"#utility.yul\":1609:1610   */\n  0x00\n    /* \"#utility.yul\":1606:1607   */\n  dup1\n    /* \"#utility.yul\":1599:1611   */\n  revert\n    /* \"#utility.yul\":1623:1740   */\ntag_38:\n    /* \"#utility.yul\":1732:1733   */\n  0x00\n    /* \"#utility.yul\":1729:1730   */\n  dup1\n    /* \"#utility.yul\":1722:1734   */\n  revert\n    /* \"#utility.yul\":1746:2054   */\ntag_39:\n    /* \"#utility.yul\":1808:1812   */\n  0x00\n    /* \"#utility.yul\":1898:1916   */\n  0xffffffffffffffff\n    /* \"#utility.yul\":1890:1896   */\n  dup3\n    /* \"#utility.yul\":1887:1917   */\n  gt\n    /* \"#utility.yul\":1884:1940   */\n  iszero\n  tag_83\n  jumpi\n    /* \"#utility.yul\":1920:1938   */\n  tag_84\n  tag_33\n  jump\t// in\ntag_84:\n    /* \"#utility.yul\":1884:1940   */\ntag_83:\n    /* \"#utility.yul\":1958:1987   */\n  tag_85\n    /* \"#utility.yul\":1980:1986   */\n  dup3\n    /* \"#utility.yul\":1958:1987   */\n  tag_32\n  jump\t// in\ntag_85:\n    /* \"#utility.yul\":1950:1987   */\n  swap1\n  pop\n    /* \"#utility.yul\":2042:2046   */\n  0x20\n    /* \"#utility.yul\":2036:2040   */\n  dup2\n    /* \"#utility.yul\":2032:2047   */\n  add\n    /* \"#utility.yul\":2024:2047   */\n  swap1\n  pop\n    /* \"#utility.yul\":1746:2054   */\n  swap2\n  swap1\n  pop\n  jump\t// out\n    /* \"#utility.yul\":2060:2199   */\ntag_40:\n    /* \"#utility.yul\":2149:2155   */\n  dup3\n    /* \"#utility.yul\":2144:2147   */\n  dup2\n    /* \"#utility.yul\":2139:2142   */\n  dup4\n    /* \"#utility.yul\":2133:2156   */\n  mcopy\n    /* \"#utility.yul\":2190:2191   */\n  0x00\n    /* \"#utility.yul\":2181:2187   */\n  dup4\n    /* \"#utility.yul\":2176:2179   */\n  dup4\n    /* \"#utility.yul\":2172:2188   */\n  add\n    /* \"#utility.yul\":2165:2192   */\n  mstore\n    /* \"#utility.yul\":2060:2199   */\n  pop\n  pop\n  pop\n  jump\t// out\n    /* \"#utility.yul\":2205:2639   */\ntag_41:\n    /* \"#utility.yul\":2294:2299   */\n  0x00\n    /* \"#utility.yul\":2319:2385   */\n  tag_88\n    /* \"#utility.yul\":2335:2384   */\n  tag_89\n    /* \"#utility.yul\":2377:2383   */\n  dup5\n    /* \"#utility.yul\":2335:2384   */\n  tag_39\n  jump\t// in\ntag_89:\n    /* \"#utility.yul\":2319:2385   */\n  tag_35\n  jump\t// in\ntag_88:\n    /* \"#utility.yul\":2310:2385   */\n  swap1\n  pop\n    /* \"#utility.yul\":2408:2414   */\n  dup3\n    /* \"#utility.yul\":2401:2406   */\n  dup2\n    /* \"#utility.yul\":2394:2415   */\n  mstore\n    /* \"#utility.yul\":2446:2450   */\n  0x20\n    /* \"#utility.yul\":2439:2444   */\n  dup2\n    /* \"#utility.yul\":2435:2451   */\n  add\n    /* \"#utility.yul\":2484:2487   */\n  dup5\n    /* \"#utility.yul\":2475:2481   */\n  dup5\n    /* \"#utility.yul\":2470:2473   */\n  dup5\n    /* \"#utility.yul\":2466:2482   */\n  add\n    /* \"#utility.yul\":2463:2488   */\n  gt\n    /* \"#utility.yul\":2460:2572   */\n  iszero\n  tag_90\n  jumpi\n    /* \"#utility.yul\":2491:2570   */\n  tag_91\n  tag_38\n  jump\t// in\ntag_91:\n    /* \"#utility.yul\":2460:2572   */\ntag_90:\n    /* \"#utility.yul\":2581:2633   */\n  tag_92\n    /* \"#utility.yul\":2626:2632   */\n  dup5\n    /* \"#utility.yul\":2621:2624   */\n  dup3\n    /* \"#utility.yul\":2616:2619   */\n  dup6\n    /* \"#utility.yul\":2581:2633   */\n  tag_40\n  jump\t// in\ntag_92:\n    /* \"#utility.yul\":2300:2639   */\n  pop\n    /* \"#utility.yul\":2205:2639   */\n  swap4\n  swap3\n  pop\n  pop\n  pop\n  jump\t// out\n    /* \"#utility.yul\":2659:3014   */\ntag_42:\n    /* \"#utility.yul\":2726:2731   */\n  0x00\n    /* \"#utility.yul\":2775:2778   */\n  dup3\n    /* \"#utility.yul\":2768:2772   */\n  0x1f\n    /* \"#utility.yul\":2760:2766   */\n  dup4\n    /* \"#utility.yul\":2756:2773   */\n  add\n    /* \"#utility.yul\":2752:2779   */\n  slt\n    /* \"#utility.yul\":2742:2864   */\n  tag_94\n  jumpi\n    /* \"#utility.yul\":2783:2862   */\n  tag_95\n  tag_31\n  jump\t// in\ntag_95:\n    /* \"#utility.yul\":2742:2864   */\ntag_94:\n    /* \"#utility.yul\":2893:2899   */\n  dup2\n    /* \"#utility.yul\":2887:2900   */\n  mload\n    /* \"#utility.yul\":2918:3008   */\n  tag_96\n    /* \"#utility.yul\":3004:3007   */\n  dup5\n    /* \"#utility.yul\":2996:3002   */\n  dup3\n    /* \"#utility.yul\":2989:2993   */\n  0x20\n    /* \"#utility.yul\":2981:2987   */\n  dup7\n    /* \"#utility.yul\":2977:2994   */\n  add\n    /* \"#utility.yul\":2918:3008   */\n  tag_41\n  jump\t// in\ntag_96:\n    /* \"#utility.yul\":2909:3008   */\n  swap2\n  pop\n    /* \"#utility.yul\":2732:3014   */\n  pop\n    /* \"#utility.yul\":2659:3014   */\n  swap3\n  swap2\n  pop\n  pop\n  jump\t// out\n    /* \"#utility.yul\":3036:3996   */\ntag_43:\n    /* \"#utility.yul\":3153:3158   */\n  0x00\n    /* \"#utility.yul\":3178:3269   */\n  tag_98\n    /* \"#utility.yul\":3194:3268   */\n  tag_99\n    /* \"#utility.yul\":3261:3267   */\n  dup5\n    /* \"#utility.yul\":3194:3268   */\n  tag_36\n  jump\t// in\ntag_99:\n    /* \"#utility.yul\":3178:3269   */\n  tag_35\n  jump\t// in\ntag_98:\n    /* \"#utility.yul\":3169:3269   */\n  swap1\n  pop\n    /* \"#utility.yul\":3289:3294   */\n  dup1\n    /* \"#utility.yul\":3318:3324   */\n  dup4\n    /* \"#utility.yul\":3311:3316   */\n  dup3\n    /* \"#utility.yul\":3304:3325   */\n  mstore\n    /* \"#utility.yul\":3352:3356   */\n  0x20\n    /* \"#utility.yul\":3345:3350   */\n  dup3\n    /* \"#utility.yul\":3341:3357   */\n  add\n    /* \"#utility.yul\":3334:3357   */\n  swap1\n  pop\n    /* \"#utility.yul\":3405:3409   */\n  0x20\n    /* \"#utility.yul\":3397:3403   */\n  dup5\n    /* \"#utility.yul\":3393:3410   */\n  mul\n    /* \"#utility.yul\":3385:3391   */\n  dup4\n    /* \"#utility.yul\":3381:3411   */\n  add\n    /* \"#utility.yul\":3434:3437   */\n  dup6\n    /* \"#utility.yul\":3426:3432   */\n  dup2\n    /* \"#utility.yul\":3423:3438   */\n  gt\n    /* \"#utility.yul\":3420:3542   */\n  iszero\n  tag_100\n  jumpi\n    /* \"#utility.yul\":3453:3532   */\n  tag_101\n  tag_37\n  jump\t// in\ntag_101:\n    /* \"#utility.yul\":3420:3542   */\ntag_100:\n    /* \"#utility.yul\":3568:3574   */\n  dup4\n    /* \"#utility.yul\":3551:3990   */\ntag_102:\n    /* \"#utility.yul\":3585:3591   */\n  dup2\n    /* \"#utility.yul\":3580:3583   */\n  dup2\n    /* \"#utility.yul\":3577:3592   */\n  lt\n    /* \"#utility.yul\":3551:3990   */\n  iszero\n  tag_104\n  jumpi\n    /* \"#utility.yul\":3667:3670   */\n  dup1\n    /* \"#utility.yul\":3661:3671   */\n  mload\n    /* \"#utility.yul\":3703:3721   */\n  0xffffffffffffffff\n    /* \"#utility.yul\":3690:3701   */\n  dup2\n    /* \"#utility.yul\":3687:3722   */\n  gt\n    /* \"#utility.yul\":3684:3806   */\n  iszero\n  tag_105\n  jumpi\n    /* \"#utility.yul\":3725:3804   */\n  tag_106\n  tag_31\n  jump\t// in\ntag_106:\n    /* \"#utility.yul\":3684:3806   */\ntag_105:\n    /* \"#utility.yul\":3849:3860   */\n  dup1\n    /* \"#utility.yul\":3841:3847   */\n  dup7\n    /* \"#utility.yul\":3837:3861   */\n  add\n    /* \"#utility.yul\":3887:3945   */\n  tag_107\n    /* \"#utility.yul\":3941:3944   */\n  dup10\n    /* \"#utility.yul\":3929:3939   */\n  dup3\n    /* \"#utility.yul\":3887:3945   */\n  tag_42\n  jump\t// in\ntag_107:\n    /* \"#utility.yul\":3882:3885   */\n  dup6\n    /* \"#utility.yul\":3875:3946   */\n  mstore\n    /* \"#utility.yul\":3975:3979   */\n  0x20\n    /* \"#utility.yul\":3970:3973   */\n  dup6\n    /* \"#utility.yul\":3966:3980   */\n  add\n    /* \"#utility.yul\":3959:3980   */\n  swap5\n  pop\n    /* \"#utility.yul\":3627:3990   */\n  pop\n  pop\n    /* \"#utility.yul\":3611:3615   */\n  0x20\n    /* \"#utility.yul\":3606:3609   */\n  dup2\n    /* \"#utility.yul\":3602:3616   */\n  add\n    /* \"#utility.yul\":3595:3616   */\n  swap1\n  pop\n    /* \"#utility.yul\":3551:3990   */\n  jump(tag_102)\ntag_104:\n    /* \"#utility.yul\":3555:3576   */\n  pop\n    /* \"#utility.yul\":3159:3996   */\n  pop\n  pop\n    /* \"#utility.yul\":3036:3996   */\n  swap4\n  swap3\n  pop\n  pop\n  pop\n  jump\t// out\n    /* \"#utility.yul\":4018:4423   */\ntag_44:\n    /* \"#utility.yul\":4110:4115   */\n  0x00\n    /* \"#utility.yul\":4159:4162   */\n  dup3\n    /* \"#utility.yul\":4152:4156   */\n  0x1f\n    /* \"#utility.yul\":4144:4150   */\n  dup4\n    /* \"#utility.yul\":4140:4157   */\n  add\n    /* \"#utility.yul\":4136:4163   */\n  slt\n    /* \"#utility.yul\":4126:4248   */\n  tag_109\n  jumpi\n    /* \"#utility.yul\":4167:4246   */\n  tag_110\n  tag_31\n  jump\t// in\ntag_110:\n    /* \"#utility.yul\":4126:4248   */\ntag_109:\n    /* \"#utility.yul\":4277:4283   */\n  dup2\n    /* \"#utility.yul\":4271:4284   */\n  mload\n    /* \"#utility.yul\":4302:4417   */\n  tag_111\n    /* \"#utility.yul\":4413:4416   */\n  dup5\n    /* \"#utility.yul\":4405:4411   */\n  dup3\n    /* \"#utility.yul\":4398:4402   */\n  0x20\n    /* \"#utility.yul\":4390:4396   */\n  dup7\n    /* \"#utility.yul\":4386:4403   */\n  add\n    /* \"#utility.yul\":4302:4417   */\n  tag_43\n  jump\t// in\ntag_111:\n    /* \"#utility.yul\":4293:4417   */\n  swap2\n  pop\n    /* \"#utility.yul\":4116:4423   */\n  pop\n    /* \"#utility.yul\":4018:4423   */\n  swap3\n  swap2\n  pop\n  pop\n  jump\t// out\n    /* \"#utility.yul\":4429:5003   */\ntag_3:\n    /* \"#utility.yul\":4534:4540   */\n  0x00\n    /* \"#utility.yul\":4583:4585   */\n  0x20\n    /* \"#utility.yul\":4571:4580   */\n  dup3\n    /* \"#utility.yul\":4562:4569   */\n  dup5\n    /* \"#utility.yul\":4558:4581   */\n  sub\n    /* \"#utility.yul\":4554:4586   */\n  slt\n    /* \"#utility.yul\":4551:4670   */\n  iszero\n  tag_113\n  jumpi\n    /* \"#utility.yul\":4589:4668   */\n  tag_114\n  tag_29\n  jump\t// in\ntag_114:\n    /* \"#utility.yul\":4551:4670   */\ntag_113:\n    /* \"#utility.yul\":4730:4731   */\n  0x00\n    /* \"#utility.yul\":4719:4728   */\n  dup3\n    /* \"#utility.yul\":4715:4732   */\n  add\n    /* \"#utility.yul\":4709:4733   */\n  mload\n    /* \"#utility.yul\":4760:4778   */\n  0xffffffffffffffff\n    /* \"#utility.yul\":4752:4758   */\n  dup2\n    /* \"#utility.yul\":4749:4779   */\n  gt\n    /* \"#utility.yul\":4746:4863   */\n  iszero\n  tag_115\n  jumpi\n    /* \"#utility.yul\":4782:4861   */\n  tag_116\n  tag_30\n  jump\t// in\ntag_116:\n    /* \"#utility.yul\":4746:4863   */\ntag_115:\n    /* \"#utility.yul\":4887:4986   */\n  tag_117\n    /* \"#utility.yul\":4978:4985   */\n  dup5\n    /* \"#utility.yul\":4969:4975   */\n  dup3\n    /* \"#utility.yul\":4958:4967   */\n  dup6\n    /* \"#utility.yul\":4954:4976   */\n  add\n    /* \"#utility.yul\":4887:4986   */\n  tag_44\n  jump\t// in\ntag_117:\n    /* \"#utility.yul\":4877:4986   */\n  swap2\n  pop\n    /* \"#utility.yul\":4680:4996   */\n  pop\n    /* \"#utility.yul\":4429:5003   */\n  swap3\n  swap2\n  pop\n  pop\n  jump\t// out\n    /* \"#utility.yul\":5009:5108   */\ntag_45:\n    /* \"#utility.yul\":5061:5067   */\n  0x00\n    /* \"#utility.yul\":5095:5100   */\n  dup2\n    /* \"#utility.yul\":5089:5101   */\n  mload\n    /* \"#utility.yul\":5079:5101   */\n  swap1\n  pop\n    /* \"#utility.yul\":5009:5108   */\n  swap2\n  swap1\n  pop\n  jump\t// out\n    /* \"#utility.yul\":5114:5294   */\ntag_46:\n    /* \"#utility.yul\":5162:5239   */\n  0x4e487b7100000000000000000000000000000000000000000000000000000000\n    /* \"#utility.yul\":5159:5160   */\n  0x00\n    /* \"#utility.yul\":5152:5240   */\n  mstore\n    /* \"#utility.yul\":5259:5263   */\n  0x22\n    /* \"#utility.yul\":5256:5257   */\n  0x04\n    /* \"#utility.yul\":5249:5264   */\n  mstore\n    /* \"#utility.yul\":5283:5287   */\n  0x24\n    /* \"#utility.yul\":5280:5281   */\n  0x00\n    /* \"#utility.yul\":5273:5288   */\n  revert\n    /* \"#utility.yul\":5300:5620   */\ntag_21:\n    /* \"#utility.yul\":5344:5350   */\n  0x00\n    /* \"#utility.yul\":5381:5382   */\n  0x02\n    /* \"#utility.yul\":5375:5379   */\n  dup3\n    /* \"#utility.yul\":5371:5383   */\n  div\n    /* \"#utility.yul\":5361:5383   */\n  swap1\n  pop\n    /* \"#utility.yul\":5428:5429   */\n  0x01\n    /* \"#utility.yul\":5422:5426   */\n  dup3\n    /* \"#utility.yul\":5418:5430   */\n  and\n    /* \"#utility.yul\":5449:5467   */\n  dup1\n    /* \"#utility.yul\":5439:5520   */\n  tag_121\n  jumpi\n    /* \"#utility.yul\":5505:5509   */\n  0x7f\n    /* \"#utility.yul\":5497:5503   */\n  dup3\n    /* \"#utility.yul\":5493:5510   */\n  and\n    /* \"#utility.yul\":5483:5510   */\n  swap2\n  pop\n    /* \"#utility.yul\":5439:5520   */\ntag_121:\n    /* \"#utility.yul\":5567:5569   */\n  0x20\n    /* \"#utility.yul\":5559:5565   */\n  dup3\n    /* \"#utility.yul\":5556:5570   */\n  lt\n    /* \"#utility.yul\":5536:5554   */\n  dup2\n    /* \"#utility.yul\":5533:5571   */\n  sub\n    /* \"#utility.yul\":5530:5614   */\n  tag_122\n  jumpi\n    /* \"#utility.yul\":5586:5604   */\n  tag_123\n  tag_46\n  jump\t// in\ntag_123:\n    /* \"#utility.yul\":5530:5614   */\ntag_122:\n    /* \"#utility.yul\":5351:5620   */\n  pop\n    /* \"#utility.yul\":5300:5620   */\n  swap2\n  swap1\n  pop\n  jump\t// out\n    /* \"#utility.yul\":5626:5767   */\ntag_47:\n    /* \"#utility.yul\":5675:5679   */\n  0x00\n    /* \"#utility.yul\":5698:5701   */\n  dup2\n    /* \"#utility.yul\":5690:5701   */\n  swap1\n  pop\n    /* \"#utility.yul\":5721:5724   */\n  dup2\n    /* \"#utility.yul\":5718:5719   */\n  0x00\n    /* \"#utility.yul\":5711:5725   */\n  mstore\n    /* \"#utility.yul\":5755:5759   */\n  0x20\n    /* \"#utility.yul\":5752:5753   */\n  0x00\n    /* \"#utility.yul\":5742:5760   */\n  keccak256\n    /* \"#utility.yul\":5734:5760   */\n  swap1\n  pop\n    /* \"#utility.yul\":5626:5767   */\n  swap2\n  swap1\n  pop\n  jump\t// out\n    /* \"#utility.yul\":5773:5866   */\ntag_48:\n    /* \"#utility.yul\":5810:5816   */\n  0x00\n    /* \"#utility.yul\":5857:5859   */\n  0x20\n    /* \"#utility.yul\":5852:5854   */\n  0x1f\n    /* \"#utility.yul\":5845:5850   */\n  dup4\n    /* \"#utility.yul\":5841:5855   */\n  add\n    /* \"#utility.yul\":5837:5860   */\n  div\n    /* \"#utility.yul\":5827:5860   */\n  swap1\n  pop\n    /* \"#utility.yul\":5773:5866   */\n  swap2\n  swap1\n  pop\n  jump\t// out\n    /* \"#utility.yul\":5872:5979   */\ntag_49:\n    /* \"#utility.yul\":5916:5924   */\n  0x00\n    /* \"#utility.yul\":5966:5971   */\n  dup3\n    /* \"#utility.yul\":5960:5964   */\n  dup3\n    /* \"#utility.yul\":5956:5972   */\n  shl\n    /* \"#utility.yul\":5935:5972   */\n  swap1\n  pop\n    /* \"#utility.yul\":5872:5979   */\n  swap3\n  swap2\n  pop\n  pop\n  jump\t// out\n    /* \"#utility.yul\":5985:6378   */\ntag_50:\n    /* \"#utility.yul\":6054:6060   */\n  0x00\n    /* \"#utility.yul\":6104:6105   */\n  0x08\n    /* \"#utility.yul\":6092:6102   */\n  dup4\n    /* \"#utility.yul\":6088:6106   */\n  mul\n    /* \"#utility.yul\":6127:6224   */\n  tag_128\n    /* \"#utility.yul\":6157:6223   */\n  0xffffffffffffffffffffffffffffffffffffffffffffffffffffffffffffffff\n    /* \"#utility.yul\":6146:6155   */\n  dup3\n    /* \"#utility.yul\":6127:6224   */\n  tag_49\n  jump\t// in\ntag_128:\n    /* \"#utility.yul\":6245:6284   */\n  tag_129\n    /* \"#utility.yul\":6275:6283   */\n  dup7\n    /* \"#utility.yul\":6264:6273   */\n  dup4\n    /* \"#utility.yul\":6245:6284   */\n  tag_49\n  jump\t// in\ntag_129:\n    /* \"#utility.yul\":6233:6284   */\n  swap6\n  pop\n    /* \"#utility.yul\":6317:6321   */\n  dup1\n    /* \"#utility.yul\":6313:6322   */\n  not\n    /* \"#utility.yul\":6306:6311   */\n  dup5\n    /* \"#utility.yul\":6302:6323   */\n  and\n    /* \"#utility.yul\":6293:6323   */\n  swap4\n  pop\n    /* \"#utility.yul\":6366:6370   */\n  dup1\n    /* \"#utility.yul\":6356:6364   */\n  dup7\n    /* \"#utility.yul\":6352:6371   */\n  and\n    /* \"#utility.yul\":6345:6350   */\n  dup5\n    /* \"#utility.yul\":6342:6372   */\n  or\n    /* \"#utility.yul\":6332:6372   */\n  swap3\n  pop\n    /* \"#utility.yul\":6061:6378   */\n  pop\n  pop\n    /* \"#utility.yul\":5985:6378   */\n  swap4\n  swap3\n  pop\n  pop\n  pop\n  jump\t// out\n    /* \"#utility.yul\":6384:6461   */\ntag_51:\n    /* \"#utility.yul\":6421:6428   */\n  0x00\n    /* \"#utility.yul\":6450:6455   */\n  dup2\n    /* \"#utility.yul\":6439:6455   */\n  swap1\n  pop\n    /* \"#utility.yul\":6384:6461   */\n  swap2\n  swap1\n  pop\n  jump\t// out\n    /* \"#utility.yul\":6467:6527   */\ntag_52:\n    /* \"#utility.yul\":6495:6498   */\n  0x00\n    /* \"#utility.yul\":6516:6521   */\n  dup2\n    /* \"#utility.yul\":6509:6521   */\n  swap1\n  pop\n    /* \"#utility.yul\":6467:6527   */\n  swap2\n  swap1\n  pop\n  jump\t// out\n    /* \"#utility.yul\":6533:6675   */\ntag_53:\n    /* \"#utility.yul\":6583:6592   */\n  0x00\n    /* \"#utility.yul\":6616:6669   */\n  tag_133\n    /* \"#utility.yul\":6634:6668   */\n  tag_134\n    /* \"#utility.yul\":6643:6667   */\n  tag_135\n    /* \"#utility.yul\":6661:6666   */\n  dup5\n    /* \"#utility.yul\":6643:6667   */\n  tag_51\n  jump\t// in\ntag_135:\n    /* \"#utility.yul\":6634:6668   */\n  tag_52\n  jump\t// in\ntag_134:\n    /* \"#utility.yul\":6616:6669   */\n  tag_51\n  jump\t// in\ntag_133:\n    /* \"#utility.yul\":6603:6669   */\n  swap1\n  pop\n    /* \"#utility.yul\":6533:6675   */\n  swap2\n  swap1\n  pop\n  jump\t// out\n    /* \"#utility.yul\":6681:6756   */\ntag_54:\n    /* \"#utility.yul\":6724:6727   */\n  0x00\n    /* \"#utility.yul\":6745:6750   */\n  dup2\n    /* \"#utility.yul\":6738:6750   */\n  swap1\n  pop\n    /* \"#utility.yul\":6681:6756   */\n  swap2\n  swap1\n  pop\n  jump\t// out\n    /* \"#utility.yul\":6762:7031   */\ntag_55:\n    /* \"#utility.yul\":6872:6911   */\n  tag_138\n    /* \"#utility.yul\":6903:6910   */\n  dup4\n    /* \"#utility.yul\":6872:6911   */\n  tag_53\n  jump\t// in\ntag_138:\n    /* \"#utility.yul\":6933:7024   */\n  tag_139\n    /* \"#utility.yul\":6982:7023   */\n  tag_140\n    /* \"#utility.yul\":7006:7022   */\n  dup3\n    /* \"#utility.yul\":6982:7023   */\n  tag_54\n  jump\t// in\ntag_140:\n    /* \"#utility.yul\":6974:6980   */\n  dup5\n    /* \"#utility.yul\":6967:6971   */\n  dup5\n    /* \"#utility.yul\":6961:6972   */\n  sload\n    /* \"#utility.yul\":6933:7024   */\n  tag_50\n  jump\t// in\ntag_139:\n    /* \"#utility.yul\":6927:6931   */\n  dup3\n    /* \"#utility.yul\":6920:7025   */\n  sstore\n    /* \"#utility.yul\":6838:7031   */\n  pop\n    /* \"#utility.yul\":6762:7031   */\n  pop\n  pop\n  pop\n  jump\t// out\n    /* \"#utility.yul\":7037:7110   */\ntag_56:\n    /* \"#utility.yul\":7082:7085   */\n  0x00\n    /* \"#utility.yul\":7037:7110   */\n  swap1\n  jump\t// out\n    /* \"#utility.yul\":7116:7305   */\ntag_57:\n    /* \"#utility.yul\":7193:7225   */\n  tag_143\n  tag_56\n  jump\t// in\ntag_143:\n    /* \"#utility.yul\":7234:7299   */\n  tag_144\n    /* \"#utility.yul\":7292:7298   */\n  dup2\n    /* \"#utility.yul\":7284:7290   */\n  dup5\n    /* \"#utility.yul\":7278:7282   */\n  dup5\n    /* \"#utility.yul\":7234:7299   */\n  tag_55\n  jump\t// in\ntag_144:\n    /* \"#utility.yul\":7169:7305   */\n  pop\n    /* \"#utility.yul\":7116:7305   */\n  pop\n  pop\n  jump\t// out\n    /* \"#utility.yul\":7311:7497   */\ntag_58:\n    /* \"#utility.yul\":7371:7491   */\ntag_146:\n    /* \"#utility.yul\":7388:7391   */\n  dup2\n    /* \"#utility.yul\":7381:7386   */\n  dup2\n    /* \"#utility.yul\":7378:7392   */\n  lt\n    /* \"#utility.yul\":7371:7491   */\n  iszero\n  tag_148\n  jumpi\n    /* \"#utility.yul\":7442:7481   */\n  tag_149\n    /* \"#utility.yul\":7479:7480   */\n  0x00\n    /* \"#utility.yul\":7472:7477   */\n  dup3\n    /* \"#utility.yul\":7442:7481   */\n  tag_57\n  jump\t// in\ntag_149:\n    /* \"#utility.yul\":7415:7416   */\n  0x01\n    /* \"#utility.yul\":7408:7413   */\n  dup2\n    /* \"#utility.yul\":7404:7417   */\n  add\n    /* \"#utility.yul\":7395:7417   */\n  swap1\n  pop\n    /* \"#utility.yul\":7371:7491   */\n  jump(tag_146)\ntag_148:\n    /* \"#utility.yul\":7311:7497   */\n  pop\n  pop\n  jump\t// out\n    /* \"#utility.yul\":7503:8046   */\ntag_59:\n    /* \"#utility.yul\":7604:7606   */\n  0x1f\n    /* \"#utility.yul\":7599:7602   */\n  dup3\n    /* \"#utility.yul\":7596:7607   */\n  gt\n    /* \"#utility.yul\":7593:8039   */\n  iszero\n  tag_151\n  jumpi\n    /* \"#utility.yul\":7638:7676   */\n  tag_152\n    /* \"#utility.yul\":7670:7675   */\n  dup2\n    /* \"#utility.yul\":7638:7676   */\n  tag_47\n  jump\t// in\ntag_152:\n    /* \"#utility.yul\":7722:7751   */\n  tag_153\n    /* \"#utility.yul\":7740:7750   */\n  dup5\n    /* \"#utility.yul\":7722:7751   */\n  tag_48\n  jump\t// in\ntag_153:\n    /* \"#utility.yul\":7712:7720   */\n  dup2\n    /* \"#utility.yul\":7708:7752   */\n  add\n    /* \"#utility.yul\":7905:7907   */\n  0x20\n    /* \"#utility.yul\":7893:7903   */\n  dup6\n    /* \"#utility.yul\":7890:7908   */\n  lt\n    /* \"#utility.yul\":7887:7936   */\n  iszero\n  tag_154\n  jumpi\n    /* \"#utility.yul\":7926:7934   */\n  dup2\n    /* \"#utility.yul\":7911:7934   */\n  swap1\n  pop\n    /* \"#utility.yul\":7887:7936   */\ntag_154:\n    /* \"#utility.yul\":7949:8029   */\n  tag_155\n    /* \"#utility.yul\":8005:8027   */\n  tag_156\n    /* \"#utility.yul\":8023:8026   */\n  dup6\n    /* \"#utility.yul\":8005:8027   */\n  tag_48\n  jump\t// in\ntag_156:\n    /* \"#utility.yul\":7995:8003   */\n  dup4\n    /* \"#utility.yul\":7991:8028   */\n  add\n    /* \"#utility.yul\":7978:7989   */\n  dup3\n    /* \"#utility.yul\":7949:8029   */\n  tag_58\n  jump\t// in\ntag_155:\n    /* \"#utility.yul\":7608:8039   */\n  pop\n  pop\n    /* \"#utility.yul\":7593:8039   */\ntag_151:\n    /* \"#utility.yul\":7503:8046   */\n  pop\n  pop\n  pop\n  jump\t// out\n    /* \"#utility.yul\":8052:8169   */\ntag_60:\n    /* \"#utility.yul\":8106:8114   */\n  0x00\n    /* \"#utility.yul\":8156:8161   */\n  dup3\n    /* \"#utility.yul\":8150:8154   */\n  dup3\n    /* \"#utility.yul\":8146:8162   */\n  shr\n    /* \"#utility.yul\":8125:8162   */\n  swap1\n  pop\n    /* \"#utility.yul\":8052:8169   */\n  swap3\n  swap2\n  pop\n  pop\n  jump\t// out\n    /* \"#utility.yul\":8175:8344   */\ntag_61:\n    /* \"#utility.yul\":8219:8225   */\n  0x00\n    /* \"#utility.yul\":8252:8303   */\n  tag_159\n    /* \"#utility.yul\":8300:8301   */\n  0x00\n    /* \"#utility.yul\":8296:8302   */\n  not\n    /* \"#utility.yul\":8288:8293   */\n  dup5\n    /* \"#utility.yul\":8285:8286   */\n  0x08\n    /* \"#utility.yul\":8281:8294   */\n  mul\n    /* \"#utility.yul\":8252:8303   */\n  tag_60\n  jump\t// in\ntag_159:\n    /* \"#utility.yul\":8248:8304   */\n  not\n    /* \"#utility.yul\":8333:8337   */\n  dup1\n    /* \"#utility.yul\":8327:8331   */\n  dup4\n    /* \"#utility.yul\":8323:8338   */\n  and\n    /* \"#utility.yul\":8313:8338   */\n  swap2\n  pop\n    /* \"#utility.yul\":8226:8344   */\n  pop\n    /* \"#utility.yul\":8175:8344   */\n  swap3\n  swap2\n  pop\n  pop\n  jump\t// out\n    /* \"#utility.yul\":8349:8644   */\ntag_62:\n    /* \"#utility.yul\":8425:8429   */\n  0x00\n    /* \"#utility.yul\":8571:8600   */\n  tag_161\n    /* \"#utility.yul\":8596:8599   */\n  dup4\n    /* \"#utility.yul\":8590:8594   */\n  dup4\n    /* \"#utility.yul\":8571:8600   */\n  tag_61\n  jump\t// in\ntag_161:\n    /* \"#utility.yul\":8563:8600   */\n  swap2\n  pop\n    /* \"#utility.yul\":8633:8636   */\n  dup3\n    /* \"#utility.yul\":8630:8631   */\n  0x02\n    /* \"#utility.yul\":8626:8637   */\n  mul\n    /* \"#utility.yul\":8620:8624   */\n  dup3\n    /* \"#utility.yul\":8617:8638   */\n  or\n    /* \"#utility.yul\":8609:8638   */\n  swap1\n  pop\n    /* \"#utility.yul\":8349:8644   */\n  swap3\n  swap2\n  pop\n  pop\n  jump\t// out\n    /* \"#utility.yul\":8649:10044   */\ntag_13:\n    /* \"#utility.yul\":8766:8803   */\n  tag_163\n    /* \"#utility.yul\":8799:8802   */\n  dup3\n    /* \"#utility.yul\":8766:8803   */\n  tag_45\n  jump\t// in\ntag_163:\n    /* \"#utility.yul\":8868:8886   */\n  0xffffffffffffffff\n    /* \"#utility.yul\":8860:8866   */\n  dup2\n    /* \"#utility.yul\":8857:8887   */\n  gt\n    /* \"#utility.yul\":8854:8910   */\n  iszero\n  tag_164\n  jumpi\n    /* \"#utility.yul\":8890:8908   */\n  tag_165\n  tag_33\n  jump\t// in\ntag_165:\n    /* \"#utility.yul\":8854:8910   */\ntag_164:\n    /* \"#utility.yul\":8934:8972   */\n  tag_166\n    /* \"#utility.yul\":8966:8970   */\n  dup3\n    /* \"#utility.yul\":8960:8971   */\n  sload\n    /* \"#utility.yul\":8934:8972   */\n  tag_21\n  jump\t// in\ntag_166:\n    /* \"#utility.yul\":9019:9086   */\n  tag_167\n    /* \"#utility.yul\":9079:9085   */\n  dup3\n    /* \"#utility.yul\":9071:9077   */\n  dup3\n    /* \"#utility.yul\":9065:9069   */\n  dup6\n    /* \"#utility.yul\":9019:9086   */\n  tag_59\n  jump\t// in\ntag_167:\n    /* \"#utility.yul\":9113:9114   */\n  0x00\n    /* \"#utility.yul\":9137:9141   */\n  0x20\n    /* \"#utility.yul\":9124:9141   */\n  swap1\n  pop\n    /* \"#utility.yul\":9169:9171   */\n  0x1f\n    /* \"#utility.yul\":9161:9167   */\n  dup4\n    /* \"#utility.yul\":9158:9172   */\n  gt\n    /* \"#utility.yul\":9186:9187   */\n  0x01\n    /* \"#utility.yul\":9181:9799   */\n  dup2\n  eq\n  tag_169\n  jumpi\n    /* \"#utility.yul\":9843:9844   */\n  0x00\n    /* \"#utility.yul\":9860:9866   */\n  dup5\n    /* \"#utility.yul\":9857:9934   */\n  iszero\n  tag_170\n  jumpi\n    /* \"#utility.yul\":9909:9918   */\n  dup3\n    /* \"#utility.yul\":9904:9907   */\n  dup8\n    /* \"#utility.yul\":9900:9919   */\n  add\n    /* \"#utility.yul\":9894:9920   */\n  mload\n    /* \"#utility.yul\":9885:9920   */\n  swap1\n  pop\n    /* \"#utility.yul\":9857:9934   */\ntag_170:\n    /* \"#utility.yul\":9960:10027   */\n  tag_171\n    /* \"#utility.yul\":10020:10026   */\n  dup6\n    /* \"#utility.yul\":10013:10018   */\n  dup3\n    /* \"#utility.yul\":9960:10027   */\n  tag_62\n  jump\t// in\ntag_171:\n    /* \"#utility.yul\":9954:9958   */\n  dup7\n    /* \"#utility.yul\":9947:10028   */\n  sstore\n    /* \"#utility.yul\":9816:10038   */\n  pop\n    /* \"#utility.yul\":9151:10038   */\n  jump(tag_168)\n    /* \"#utility.yul\":9181:9799   */\ntag_169:\n    /* \"#utility.yul\":9233:9237   */\n  0x1f\n    /* \"#utility.yul\":9229:9238   */\n  not\n    /* \"#utility.yul\":9221:9227   */\n  dup5\n    /* \"#utility.yul\":9217:9239   */\n  and\n    /* \"#utility.yul\":9267:9304   */\n  tag_172\n    /* \"#utility.yul\":9299:9303   */\n  dup7\n    /* \"#utility.yul\":9267:9304   */\n  tag_47\n  jump\t// in\ntag_172:\n    /* \"#utility.yul\":9326:9327   */\n  0x00\n    /* \"#utility.yul\":9340:9548   */\ntag_173:\n    /* \"#utility.yul\":9354:9361   */\n  dup3\n    /* \"#utility.yul\":9351:9352   */\n  dup2\n    /* \"#utility.yul\":9348:9362   */\n  lt\n    /* \"#utility.yul\":9340:9548   */\n  iszero\n  tag_175\n  jumpi\n    /* \"#utility.yul\":9433:9442   */\n  dup5\n    /* \"#utility.yul\":9428:9431   */\n  dup10\n    /* \"#utility.yul\":9424:9443   */\n  add\n    /* \"#utility.yul\":9418:9444   */\n  mload\n    /* \"#utility.yul\":9410:9416   */\n  dup3\n    /* \"#utility.yul\":9403:9445   */\n  sstore\n    /* \"#utility.yul\":9484:9485   */\n  0x01\n    /* \"#utility.yul\":9476:9482   */\n  dup3\n    /* \"#utility.yul\":9472:9486   */\n  add\n    /* \"#utility.yul\":9462:9486   */\n  swap2\n  pop\n    /* \"#utility.yul\":9531:9533   */\n  0x20\n    /* \"#utility.yul\":9520:9529   */\n  dup6\n    /* \"#utility.yul\":9516:9534   */\n  add\n    /* \"#utility.yul\":9503:9534   */\n  swap5\n  pop\n    /* \"#utility.yul\":9377:9381   */\n  0x20\n    /* \"#utility.yul\":9374:9375   */\n  dup2\n    /* \"#utility.yul\":9370:9382   */\n  add\n    /* \"#utility.yul\":9365:9382   */\n  swap1\n  pop\n    /* \"#utility.yul\":9340:9548   */\n  jump(tag_173)\ntag_175:\n    /* \"#utility.yul\":9576:9582   */\n  dup7\n    /* \"#utility.yul\":9567:9574   */\n  dup4\n    /* \"#utility.yul\":9564:9583   */\n  lt\n    /* \"#utility.yul\":9561:9740   */\n  iszero\n  tag_176\n  jumpi\n    /* \"#utility.yul\":9634:9643   */\n  dup5\n    /* \"#utility.yul\":9629:9632   */\n  dup10\n    /* \"#utility.yul\":9625:9644   */\n  add\n    /* \"#utility.yul\":9619:9645   */\n  mload\n    /* \"#utility.yul\":9677:9725   */\n  tag_177\n    /* \"#utility.yul\":9719:9723   */\n  0x1f\n    /* \"#utility.yul\":9711:9717   */\n  dup10\n    /* \"#utility.yul\":9707:9724   */\n  and\n    /* \"#utility.yul\":9696:9705   */\n  dup3\n    /* \"#utility.yul\":9677:9725   */\n  tag_61\n  jump\t// in\ntag_177:\n    /* \"#utility.yul\":9669:9675   */\n  dup4\n    /* \"#utility.yul\":9662:9726   */\n  sstore\n    /* \"#utility.yul\":9584:9740   */\n  pop\n    /* \"#utility.yul\":9561:9740   */\ntag_176:\n    /* \"#utility.yul\":9786:9787   */\n  0x01\n    /* \"#utility.yul\":9782:9783   */\n  0x02\n    /* \"#utility.yul\":9774:9780   */\n  dup9\n    /* \"#utility.yul\":9770:9784   */\n  mul\n    /* \"#utility.yul\":9766:9788   */\n  add\n    /* \"#utility.yul\":9760:9764   */\n  dup9\n    /* \"#utility.yul\":9753:9789   */\n  sstore\n    /* \"#utility.yul\":9188:9799   */\n  pop\n  pop\n  pop\n    /* \"#utility.yul\":9151:10038   */\ntag_168:\n  pop\n    /* \"#utility.yul\":8741:10044   */\n  pop\n  pop\n  pop\n    /* \"#utility.yul\":8649:10044   */\n  pop\n  pop\n  jump\t// out\n    /* \"vote.sol\":70:721  contract Vote {... */\ntag_8:\n  dataSize(sub_0)\n  dup1\n  dataOffset(sub_0)\n  0x00\n  codecopy\n  0x00\n  return\nstop\n\nsub_0: assembly {\n        /* \"vote.sol\":70:721  contract Vote {... */\n      mstore(0x40, 0x80)\n      callvalue\n      dup1\n      iszero\n      tag_1\n      jumpi\n      0x00\n      dup1\n      revert\n    tag_1:\n      pop\n      jumpi(tag_2, lt(calldatasize, 0x04))\n      shr(0xe0, calldataload(0x00))\n      dup1\n      0x3477ee2e\n      eq\n      tag_3\n      jumpi\n      dup1\n      0xb99ef1fa\n      eq\n      tag_4\n      jumpi\n      dup1\n      0xda58c7d9\n      eq\n      tag_5\n      jumpi\n      dup1\n      0xfc36e15b\n      eq\n      tag_6\n      jumpi\n    tag_2:\n      0x00\n      dup1\n      revert\n        /* \"vote.sol\":91:117  string[] public candidates */\n    tag_3:\n      tag_7\n      0x04\n      dup1\n      calldatasize\n      sub\n      dup2\n      add\n      swap1\n      tag_8\n      swap2\n      swap1\n      tag_9\n      jump\t// in\n    tag_8:\n      tag_10\n      jump\t// in\n    tag_7:\n      mload(0x40)\n      tag_11\n      swap2\n      swap1\n      tag_12\n      jump\t// in\n    tag_11:\n      mload(0x40)\n      dup1\n      swap2\n      sub\n      swap1\n      return\n        /* \"vote.sol\":154:188  mapping(string=>uint) public votes */\n    tag_4:\n      tag_13\n      0x04\n      dup1\n      calldatasize\n      sub\n      dup2\n      add\n      swap1\n      tag_14\n      swap2\n      swap1\n      tag_15\n      jump\t// in\n    tag_14:\n      tag_16\n      jump\t// in\n    tag_13:\n      mload(0x40)\n      tag_17\n      swap2\n      swap1\n      tag_18\n      jump\t// in\n    tag_17:\n      mload(0x40)\n      dup1\n      swap2\n      sub\n      swap1\n      return\n        /* \"vote.sol\":124:147  address[] public voters */\n    tag_5:\n      tag_19\n      0x04\n      dup1\n      calldatasize\n      sub\n      dup2\n      add\n      swap1\n      tag_20\n      swap2\n      swap1\n      tag_9\n      jump\t// in\n    tag_20:\n      tag_21\n      jump\t// in\n    tag_19:\n      mload(0x40)\n      tag_22\n      swap2\n      swap1\n      tag_23\n      jump\t// in\n    tag_22:\n      mload(0x40)\n      dup1\n      swap2\n      sub\n      swap1\n      return\n        /* \"vote.sol\":289:402  function vote (string memory _candidate) validCandidate(_candidate) public {... */\n    tag_6:\n      tag_24\n      0x04\n      dup1\n      calldatasize\n      sub\n      dup2\n      add\n      swap1\n      tag_25\n      swap2\n      swap1\n      tag_15\n      jump\t// in\n    tag_25:\n      tag_26\n      jump\t// in\n    tag_24:\n      stop\n        /* \"vote.sol\":91:117  string[] public candidates */\n    tag_10:\n      0x00\n      dup2\n      dup2\n      sload\n      dup2\n      lt\n      tag_27\n      jumpi\n      0x00\n      dup1\n      revert\n    tag_27:\n      swap1\n      0x00\n      mstore\n      keccak256(0x00, 0x20)\n      add\n      0x00\n      swap2\n      pop\n      swap1\n      pop\n      dup1\n      sload\n      tag_29\n      swap1\n      tag_30\n      jump\t// in\n    tag_29:\n      dup1\n      0x1f\n      add\n      0x20\n      dup1\n      swap2\n      div\n      mul\n      0x20\n      add\n      mload(0x40)\n      swap1\n      dup2\n      add\n      0x40\n      mstore\n      dup1\n      swap3\n      swap2\n      swap1\n      dup2\n      dup2\n      mstore\n      0x20\n      add\n      dup3\n      dup1\n      sload\n      tag_31\n      swap1\n      tag_30\n      jump\t// in\n    tag_31:\n      dup1\n      iszero\n      tag_32\n      jumpi\n      dup1\n      0x1f\n      lt\n      tag_33\n      jumpi\n      0x0100\n      dup1\n      dup4\n      sload\n      div\n      mul\n      dup4\n      mstore\n      swap2\n      0x20\n      add\n      swap2\n      jump(tag_32)\n    tag_33:\n      dup3\n      add\n      swap2\n      swap1\n      0x00\n      mstore\n      keccak256(0x00, 0x20)\n      swap1\n    tag_34:\n      dup2\n      sload\n      dup2\n      mstore\n      swap1\n      0x01\n      add\n      swap1\n      0x20\n      add\n      dup1\n      dup4\n      gt\n      tag_34\n      jumpi\n      dup3\n      swap1\n      sub\n      0x1f\n      and\n      dup3\n      add\n      swap2\n    tag_32:\n      pop\n      pop\n      pop\n      pop\n      pop\n      dup2\n      jump\t// out\n        /* \"vote.sol\":154:188  mapping(string=>uint) public votes */\n    tag_16:\n      0x02\n      dup2\n      dup1\n      mload\n      0x20\n      dup2\n      add\n      dup3\n      add\n      dup1\n      mload\n      dup5\n      dup3\n      mstore\n      0x20\n      dup4\n      add\n      0x20\n      dup6\n      add\n      keccak256\n      dup2\n      dup4\n      mstore\n      dup1\n      swap6\n      pop\n      pop\n      pop\n      pop\n      pop\n      pop\n      0x00\n      swap2\n      pop\n      swap1\n      pop\n      sload\n      dup2\n      jump\t// out\n        /* \"vote.sol\":124:147  address[] public voters */\n    tag_21:\n      0x01\n      dup2\n      dup2\n      sload\n      dup2\n      lt\n      tag_35\n      jumpi\n      0x00\n      dup1\n      revert\n    tag_35:\n      swap1\n      0x00\n      mstore\n      keccak256(0x00, 0x20)\n      add\n      0x00\n      swap2\n      pop\n      sload\n      swap1\n      0x0100\n      exp\n      swap1\n      div\n      0xffffffffffffffffffffffffffffffffffffffff\n      and\n      dup2\n      jump\t// out\n        /* \"vote.sol\":289:402  function vote (string memory _candidate) validCandidate(_candidate) public {... */\n    tag_26:\n        /* \"vote.sol\":345:355  _candidate */\n      dup1\n        /* \"vote.sol\":476:485  uint256 i */\n      0x00\n        /* \"vote.sol\":471:672  for (uint256 i = 0; i < candidates.length; i++) {... */\n    tag_38:\n        /* \"vote.sol\":495:505  candidates */\n      0x00\n        /* \"vote.sol\":495:512  candidates.length */\n      dup1\n      sload\n      swap1\n      pop\n        /* \"vote.sol\":491:492  i */\n      dup2\n        /* \"vote.sol\":491:512  i < candidates.length */\n      lt\n        /* \"vote.sol\":471:672  for (uint256 i = 0; i < candidates.length; i++) {... */\n      iszero\n      tag_39\n      jumpi\n        /* \"vote.sol\":611:621  _candidate */\n      dup2\n        /* \"vote.sol\":594:622  abi.encodePacked(_candidate) */\n      add(0x20, mload(0x40))\n      tag_41\n      swap2\n      swap1\n      tag_42\n      jump\t// in\n    tag_41:\n      mload(0x40)\n      0x20\n      dup2\n      dup4\n      sub\n      sub\n      dup2\n      mstore\n      swap1\n      0x40\n      mstore\n        /* \"vote.sol\":584:623  keccak256(abi.encodePacked(_candidate)) */\n      dup1\n      mload\n      swap1\n      0x20\n      add\n      keccak256\n        /* \"vote.sol\":565:575  candidates */\n      0x00\n        /* \"vote.sol\":576:577  i */\n      dup3\n        /* \"vote.sol\":565:578  candidates[i] */\n      dup2\n      sload\n      dup2\n      lt\n      tag_43\n      jumpi\n      tag_44\n      tag_45\n      jump\t// in\n    tag_44:\n    tag_43:\n      swap1\n      0x00\n      mstore\n      keccak256(0x00, 0x20)\n      add\n        /* \"vote.sol\":548:579  abi.encodePacked(candidates[i]) */\n      add(0x20, mload(0x40))\n      tag_47\n      swap2\n      swap1\n      tag_48\n      jump\t// in\n    tag_47:\n      mload(0x40)\n      0x20\n      dup2\n      dup4\n      sub\n      sub\n      dup2\n      mstore\n      swap1\n      0x40\n      mstore\n        /* \"vote.sol\":538:580  keccak256(abi.encodePacked(candidates[i])) */\n      dup1\n      mload\n      swap1\n      0x20\n      add\n      keccak256\n        /* \"vote.sol\":538:623  keccak256(abi.encodePacked(candidates[i])) == keccak256(abi.encodePacked(_candidate)) */\n      sub\n        /* \"vote.sol\":534:661  if (keccak256(abi.encodePacked(candidates[i])) == keccak256(abi.encodePacked(_candidate))) {... */\n      tag_49\n      jumpi\n        /* \"vote.sol\":375:380  votes */\n      0x02\n        /* \"vote.sol\":381:391  _candidate */\n      dup4\n        /* \"vote.sol\":375:392  votes[_candidate] */\n      mload(0x40)\n      tag_51\n      swap2\n      swap1\n      tag_42\n      jump\t// in\n    tag_51:\n      swap1\n      dup2\n      mstore\n      0x20\n      add\n      mload(0x40)\n      dup1\n      swap2\n      sub\n      swap1\n      keccak256\n      0x00\n        /* \"vote.sol\":375:394  votes[_candidate]++ */\n      dup2\n      sload\n      dup1\n      swap3\n      swap2\n      swap1\n      tag_52\n      swap1\n      tag_53\n      jump\t// in\n    tag_52:\n      swap2\n      swap1\n      pop\n      sstore\n      pop\n        /* \"vote.sol\":534:661  if (keccak256(abi.encodePacked(candidates[i])) == keccak256(abi.encodePacked(_candidate))) {... */\n    tag_49:\n        /* \"vote.sol\":514:517  i++ */\n      dup1\n      dup1\n      0x01\n      add\n      swap2\n      pop\n      pop\n        /* \"vote.sol\":471:672  for (uint256 i = 0; i < candidates.length; i++) {... */\n      jump(tag_38)\n    tag_39:\n      pop\n        /* \"vote.sol\":682:710  revert(\"Invalid candidate.\") */\n      mload(0x40)\n      0x08c379a000000000000000000000000000000000000000000000000000000000\n      dup2\n      mstore\n      0x04\n      add\n      tag_54\n      swap1\n      tag_55\n      jump\t// in\n    tag_54:\n      mload(0x40)\n      dup1\n      swap2\n      sub\n      swap1\n      revert\n        /* \"#utility.yul\":7:82   */\n    tag_56:\n        /* \"#utility.yul\":40:46   */\n      0x00\n        /* \"#utility.yul\":73:75   */\n      0x40\n        /* \"#utility.yul\":67:76   */\n      mload\n        /* \"#utility.yul\":57:76   */\n      swap1\n      pop\n        /* \"#utility.yul\":7:82   */\n      swap1\n      jump\t// out\n        /* \"#utility.yul\":88:205   */\n    tag_57:\n        /* \"#utility.yul\":197:198   */\n      0x00\n        /* \"#utility.yul\":194:195   */\n      dup1\n        /* \"#utility.yul\":187:199   */\n      revert\n        /* \"#utility.yul\":211:328   */\n    tag_58:\n        /* \"#utility.yul\":320:321   */\n      0x00\n        /* \"#utility.yul\":317:318   */\n      dup1\n        /* \"#utility.yul\":310:322   */\n      revert\n        /* \"#utility.yul\":334:411   */\n    tag_59:\n        /* \"#utility.yul\":371:378   */\n      0x00\n        /* \"#utility.yul\":400:405   */\n      dup2\n        /* \"#utility.yul\":389:405   */\n      swap1\n      pop\n        /* \"#utility.yul\":334:411   */\n      swap2\n      swap1\n      pop\n      jump\t// out\n        /* \"#utility.yul\":417:539   */\n    tag_60:\n        /* \"#utility.yul\":490:514   */\n      tag_94\n        /* \"#utility.yul\":508:513   */\n      dup2\n        /* \"#utility.yul\":490:514   */\n      tag_59\n      jump\t// in\n    tag_94:\n        /* \"#utility.yul\":483:488   */\n      dup2\n        /* \"#utility.yul\":480:515   */\n      eq\n        /* \"#utility.yul\":470:533   */\n      tag_95\n      jumpi\n        /* \"#utility.yul\":529:530   */\n      0x00\n        /* \"#utility.yul\":526:527   */\n      dup1\n        /* \"#utility.yul\":519:531   */\n      revert\n        /* \"#utility.yul\":470:533   */\n    tag_95:\n        /* \"#utility.yul\":417:539   */\n      pop\n      jump\t// out\n        /* \"#utility.yul\":545:684   */\n    tag_61:\n        /* \"#utility.yul\":591:596   */\n      0x00\n        /* \"#utility.yul\":629:635   */\n      dup2\n        /* \"#utility.yul\":616:636   */\n      calldataload\n        /* \"#utility.yul\":607:636   */\n      swap1\n      pop\n        /* \"#utility.yul\":645:678   */\n      tag_97\n        /* \"#utility.yul\":672:677   */\n      dup2\n        /* \"#utility.yul\":645:678   */\n      tag_60\n      jump\t// in\n    tag_97:\n        /* \"#utility.yul\":545:684   */\n      swap3\n      swap2\n      pop\n      pop\n      jump\t// out\n        /* \"#utility.yul\":690:1019   */\n    tag_9:\n        /* \"#utility.yul\":749:755   */\n      0x00\n        /* \"#utility.yul\":798:800   */\n      0x20\n        /* \"#utility.yul\":786:795   */\n      dup3\n        /* \"#utility.yul\":777:784   */\n      dup5\n        /* \"#utility.yul\":773:796   */\n      sub\n        /* \"#utility.yul\":769:801   */\n      slt\n        /* \"#utility.yul\":766:885   */\n      iszero\n      tag_99\n      jumpi\n        /* \"#utility.yul\":804:883   */\n      tag_100\n      tag_57\n      jump\t// in\n    tag_100:\n        /* \"#utility.yul\":766:885   */\n    tag_99:\n        /* \"#utility.yul\":924:925   */\n      0x00\n        /* \"#utility.yul\":949:1002   */\n      tag_101\n        /* \"#utility.yul\":994:1001   */\n      dup5\n        /* \"#utility.yul\":985:991   */\n      dup3\n        /* \"#utility.yul\":974:983   */\n      dup6\n        /* \"#utility.yul\":970:992   */\n      add\n        /* \"#utility.yul\":949:1002   */\n      tag_61\n      jump\t// in\n    tag_101:\n        /* \"#utility.yul\":939:1002   */\n      swap2\n      pop\n        /* \"#utility.yul\":895:1012   */\n      pop\n        /* \"#utility.yul\":690:1019   */\n      swap3\n      swap2\n      pop\n      pop\n      jump\t// out\n        /* \"#utility.yul\":1025:1124   */\n    tag_62:\n        /* \"#utility.yul\":1077:1083   */\n      0x00\n        /* \"#utility.yul\":1111:1116   */\n      dup2\n        /* \"#utility.yul\":1105:1117   */\n      mload\n        /* \"#utility.yul\":1095:1117   */\n      swap1\n      pop\n        /* \"#utility.yul\":1025:1124   */\n      swap2\n      swap1\n      pop\n      jump\t// out\n        /* \"#utility.yul\":1130:1299   */\n    tag_63:\n        /* \"#utility.yul\":1214:1225   */\n      0x00\n        /* \"#utility.yul\":1248:1254   */\n      dup3\n        /* \"#utility.yul\":1243:1246   */\n      dup3\n        /* \"#utility.yul\":1236:1255   */\n      mstore\n        /* \"#utility.yul\":1288:1292   */\n      0x20\n        /* \"#utility.yul\":1283:1286   */\n      dup3\n        /* \"#utility.yul\":1279:1293   */\n      add\n        /* \"#utility.yul\":1264:1293   */\n      swap1\n      pop\n        /* \"#utility.yul\":1130:1299   */\n      swap3\n      swap2\n      pop\n      pop\n      jump\t// out\n        /* \"#utility.yul\":1305:1444   */\n    tag_64:\n        /* \"#utility.yul\":1394:1400   */\n      dup3\n        /* \"#utility.yul\":1389:1392   */\n      dup2\n        /* \"#utility.yul\":1384:1387   */\n      dup4\n        /* \"#utility.yul\":1378:1401   */\n      mcopy\n        /* \"#utility.yul\":1435:1436   */\n      0x00\n        /* \"#utility.yul\":1426:1432   */\n      dup4\n        /* \"#utility.yul\":1421:1424   */\n      dup4\n        /* \"#utility.yul\":1417:1433   */\n      add\n        /* \"#utility.yul\":1410:1437   */\n      mstore\n        /* \"#utility.yul\":1305:1444   */\n      pop\n      pop\n      pop\n      jump\t// out\n        /* \"#utility.yul\":1450:1552   */\n    tag_65:\n        /* \"#utility.yul\":1491:1497   */\n      0x00\n        /* \"#utility.yul\":1542:1544   */\n      0x1f\n        /* \"#utility.yul\":1538:1545   */\n      not\n        /* \"#utility.yul\":1533:1535   */\n      0x1f\n        /* \"#utility.yul\":1526:1531   */\n      dup4\n        /* \"#utility.yul\":1522:1536   */\n      add\n        /* \"#utility.yul\":1518:1546   */\n      and\n        /* \"#utility.yul\":1508:1546   */\n      swap1\n      pop\n        /* \"#utility.yul\":1450:1552   */\n      swap2\n      swap1\n      pop\n      jump\t// out\n        /* \"#utility.yul\":1558:1935   */\n    tag_66:\n        /* \"#utility.yul\":1646:1649   */\n      0x00\n        /* \"#utility.yul\":1674:1713   */\n      tag_107\n        /* \"#utility.yul\":1707:1712   */\n      dup3\n        /* \"#utility.yul\":1674:1713   */\n      tag_62\n      jump\t// in\n    tag_107:\n        /* \"#utility.yul\":1729:1800   */\n      tag_108\n        /* \"#utility.yul\":1793:1799   */\n      dup2\n        /* \"#utility.yul\":1788:1791   */\n      dup6\n        /* \"#utility.yul\":1729:1800   */\n      tag_63\n      jump\t// in\n    tag_108:\n        /* \"#utility.yul\":1722:1800   */\n      swap4\n      pop\n        /* \"#utility.yul\":1809:1874   */\n      tag_109\n        /* \"#utility.yul\":1867:1873   */\n      dup2\n        /* \"#utility.yul\":1862:1865   */\n      dup6\n        /* \"#utility.yul\":1855:1859   */\n      0x20\n        /* \"#utility.yul\":1848:1853   */\n      dup7\n        /* \"#utility.yul\":1844:1860   */\n      add\n        /* \"#utility.yul\":1809:1874   */\n      tag_64\n      jump\t// in\n    tag_109:\n        /* \"#utility.yul\":1899:1928   */\n      tag_110\n        /* \"#utility.yul\":1921:1927   */\n      dup2\n        /* \"#utility.yul\":1899:1928   */\n      tag_65\n      jump\t// in\n    tag_110:\n        /* \"#utility.yul\":1894:1897   */\n      dup5\n        /* \"#utility.yul\":1890:1929   */\n      add\n        /* \"#utility.yul\":1883:1929   */\n      swap2\n      pop\n        /* \"#utility.yul\":1650:1935   */\n      pop\n        /* \"#utility.yul\":1558:1935   */\n      swap3\n      swap2\n      pop\n      pop\n      jump\t// out\n        /* \"#utility.yul\":1941:2254   */\n    tag_12:\n        /* \"#utility.yul\":2054:2058   */\n      0x00\n        /* \"#utility.yul\":2092:2094   */\n      0x20\n        /* \"#utility.yul\":2081:2090   */\n      dup3\n        /* \"#utility.yul\":2077:2095   */\n      add\n        /* \"#utility.yul\":2069:2095   */\n      swap1\n      pop\n        /* \"#utility.yul\":2141:2150   */\n      dup2\n        /* \"#utility.yul\":2135:2139   */\n      dup2\n        /* \"#utility.yul\":2131:2151   */\n      sub\n        /* \"#utility.yul\":2127:2128   */\n      0x00\n        /* \"#utility.yul\":2116:2125   */\n      dup4\n        /* \"#utility.yul\":2112:2129   */\n      add\n        /* \"#utility.yul\":2105:2152   */\n      mstore\n        /* \"#utility.yul\":2169:2247   */\n      tag_112\n        /* \"#utility.yul\":2242:2246   */\n      dup2\n        /* \"#utility.yul\":2233:2239   */\n      dup5\n        /* \"#utility.yul\":2169:2247   */\n      tag_66\n      jump\t// in\n    tag_112:\n        /* \"#utility.yul\":2161:2247   */\n      swap1\n      pop\n        /* \"#utility.yul\":1941:2254   */\n      swap3\n      swap2\n      pop\n      pop\n      jump\t// out\n        /* \"#utility.yul\":2260:2377   */\n    tag_67:\n        /* \"#utility.yul\":2369:2370   */\n      0x00\n        /* \"#utility.yul\":2366:2367   */\n      dup1\n        /* \"#utility.yul\":2359:2371   */\n      revert\n        /* \"#utility.yul\":2383:2500   */\n    tag_68:\n        /* \"#utility.yul\":2492:2493   */\n      0x00\n        /* \"#utility.yul\":2489:2490   */\n      dup1\n        /* \"#utility.yul\":2482:2494   */\n      revert\n        /* \"#utility.yul\":2506:2686   */\n    tag_69:\n        /* \"#utility.yul\":2554:2631   */\n      0x4e487b7100000000000000000000000000000000000000000000000000000000\n        /* \"#utility.yul\":2551:2552   */\n      0x00\n        /* \"#utility.yul\":2544:2632   */\n      mstore\n        /* \"#utility.yul\":2651:2655   */\n      0x41\n        /* \"#utility.yul\":2648:2649   */\n      0x04\n        /* \"#utility.yul\":2641:2656   */\n      mstore\n        /* \"#utility.yul\":2675:2679   */\n      0x24\n        /* \"#utility.yul\":2672:2673   */\n      0x00\n        /* \"#utility.yul\":2665:2680   */\n      revert\n        /* \"#utility.yul\":2692:2973   */\n    tag_70:\n        /* \"#utility.yul\":2775:2802   */\n      tag_117\n        /* \"#utility.yul\":2797:2801   */\n      dup3\n        /* \"#utility.yul\":2775:2802   */\n      tag_65\n      jump\t// in\n    tag_117:\n        /* \"#utility.yul\":2767:2773   */\n      dup2\n        /* \"#utility.yul\":2763:2803   */\n      add\n        /* \"#utility.yul\":2905:2911   */\n      dup2\n        /* \"#utility.yul\":2893:2903   */\n      dup2\n        /* \"#utility.yul\":2890:2912   */\n      lt\n        /* \"#utility.yul\":2869:2887   */\n      0xffffffffffffffff\n        /* \"#utility.yul\":2857:2867   */\n      dup3\n        /* \"#utility.yul\":2854:2888   */\n      gt\n        /* \"#utility.yul\":2851:2913   */\n      or\n        /* \"#utility.yul\":2848:2936   */\n      iszero\n      tag_118\n      jumpi\n        /* \"#utility.yul\":2916:2934   */\n      tag_119\n      tag_69\n      jump\t// in\n    tag_119:\n        /* \"#utility.yul\":2848:2936   */\n    tag_118:\n        /* \"#utility.yul\":2956:2966   */\n      dup1\n        /* \"#utility.yul\":2952:2954   */\n      0x40\n        /* \"#utility.yul\":2945:2967   */\n      mstore\n        /* \"#utility.yul\":2735:2973   */\n      pop\n        /* \"#utility.yul\":2692:2973   */\n      pop\n      pop\n      jump\t// out\n        /* \"#utility.yul\":2979:3108   */\n    tag_71:\n        /* \"#utility.yul\":3013:3019   */\n      0x00\n        /* \"#utility.yul\":3040:3060   */\n      tag_121\n      tag_56\n      jump\t// in\n    tag_121:\n        /* \"#utility.yul\":3030:3060   */\n      swap1\n      pop\n        /* \"#utility.yul\":3069:3102   */\n      tag_122\n        /* \"#utility.yul\":3097:3101   */\n      dup3\n        /* \"#utility.yul\":3089:3095   */\n      dup3\n        /* \"#utility.yul\":3069:3102   */\n      tag_70\n      jump\t// in\n    tag_122:\n        /* \"#utility.yul\":2979:3108   */\n      swap2\n      swap1\n      pop\n      jump\t// out\n        /* \"#utility.yul\":3114:3422   */\n    tag_72:\n        /* \"#utility.yul\":3176:3180   */\n      0x00\n        /* \"#utility.yul\":3266:3284   */\n      0xffffffffffffffff\n        /* \"#utility.yul\":3258:3264   */\n      dup3\n        /* \"#utility.yul\":3255:3285   */\n      gt\n        /* \"#utility.yul\":3252:3308   */\n      iszero\n      tag_124\n      jumpi\n        /* \"#utility.yul\":3288:3306   */\n      tag_125\n      tag_69\n      jump\t// in\n    tag_125:\n        /* \"#utility.yul\":3252:3308   */\n    tag_124:\n        /* \"#utility.yul\":3326:3355   */\n      tag_126\n        /* \"#utility.yul\":3348:3354   */\n      dup3\n        /* \"#utility.yul\":3326:3355   */\n      tag_65\n      jump\t// in\n    tag_126:\n        /* \"#utility.yul\":3318:3355   */\n      swap1\n      pop\n        /* \"#utility.yul\":3410:3414   */\n      0x20\n        /* \"#utility.yul\":3404:3408   */\n      dup2\n        /* \"#utility.yul\":3400:3415   */\n      add\n        /* \"#utility.yul\":3392:3415   */\n      swap1\n      pop\n        /* \"#utility.yul\":3114:3422   */\n      swap2\n      swap1\n      pop\n      jump\t// out\n        /* \"#utility.yul\":3428:3576   */\n    tag_73:\n        /* \"#utility.yul\":3526:3532   */\n      dup3\n        /* \"#utility.yul\":3521:3524   */\n      dup2\n        /* \"#utility.yul\":3516:3519   */\n      dup4\n        /* \"#utility.yul\":3503:3533   */\n      calldatacopy\n        /* \"#utility.yul\":3567:3568   */\n      0x00\n        /* \"#utility.yul\":3558:3564   */\n      dup4\n        /* \"#utility.yul\":3553:3556   */\n      dup4\n        /* \"#utility.yul\":3549:3565   */\n      add\n        /* \"#utility.yul\":3542:3569   */\n      mstore\n        /* \"#utility.yul\":3428:3576   */\n      pop\n      pop\n      pop\n      jump\t// out\n        /* \"#utility.yul\":3582:4007   */\n    tag_74:\n        /* \"#utility.yul\":3660:3665   */\n      0x00\n        /* \"#utility.yul\":3685:3751   */\n      tag_129\n        /* \"#utility.yul\":3701:3750   */\n      tag_130\n        /* \"#utility.yul\":3743:3749   */\n      dup5\n        /* \"#utility.yul\":3701:3750   */\n      tag_72\n      jump\t// in\n    tag_130:\n        /* \"#utility.yul\":3685:3751   */\n      tag_71\n      jump\t// in\n    tag_129:\n        /* \"#utility.yul\":3676:3751   */\n      swap1\n      pop\n        /* \"#utility.yul\":3774:3780   */\n      dup3\n        /* \"#utility.yul\":3767:3772   */\n      dup2\n        /* \"#utility.yul\":3760:3781   */\n      mstore\n        /* \"#utility.yul\":3812:3816   */\n      0x20\n        /* \"#utility.yul\":3805:3810   */\n      dup2\n        /* \"#utility.yul\":3801:3817   */\n      add\n        /* \"#utility.yul\":3850:3853   */\n      dup5\n        /* \"#utility.yul\":3841:3847   */\n      dup5\n        /* \"#utility.yul\":3836:3839   */\n      dup5\n        /* \"#utility.yul\":3832:3848   */\n      add\n        /* \"#utility.yul\":3829:3854   */\n      gt\n        /* \"#utility.yul\":3826:3938   */\n      iszero\n      tag_131\n      jumpi\n        /* \"#utility.yul\":3857:3936   */\n      tag_132\n      tag_68\n      jump\t// in\n    tag_132:\n        /* \"#utility.yul\":3826:3938   */\n    tag_131:\n        /* \"#utility.yul\":3947:4001   */\n      tag_133\n        /* \"#utility.yul\":3994:4000   */\n      dup5\n        /* \"#utility.yul\":3989:3992   */\n      dup3\n        /* \"#utility.yul\":3984:3987   */\n      dup6\n        /* \"#utility.yul\":3947:4001   */\n      tag_73\n      jump\t// in\n    tag_133:\n        /* \"#utility.yul\":3666:4007   */\n      pop\n        /* \"#utility.yul\":3582:4007   */\n      swap4\n      swap3\n      pop\n      pop\n      pop\n      jump\t// out\n        /* \"#utility.yul\":4027:4367   */\n    tag_75:\n        /* \"#utility.yul\":4083:4088   */\n      0x00\n        /* \"#utility.yul\":4132:4135   */\n      dup3\n        /* \"#utility.yul\":4125:4129   */\n      0x1f\n        /* \"#utility.yul\":4117:4123   */\n      dup4\n        /* \"#utility.yul\":4113:4130   */\n      add\n        /* \"#utility.yul\":4109:4136   */\n      slt\n        /* \"#utility.yul\":4099:4221   */\n      tag_135\n      jumpi\n        /* \"#utility.yul\":4140:4219   */\n      tag_136\n      tag_67\n      jump\t// in\n    tag_136:\n        /* \"#utility.yul\":4099:4221   */\n    tag_135:\n        /* \"#utility.yul\":4257:4263   */\n      dup2\n        /* \"#utility.yul\":4244:4264   */\n      calldataload\n        /* \"#utility.yul\":4282:4361   */\n      tag_137\n        /* \"#utility.yul\":4357:4360   */\n      dup5\n        /* \"#utility.yul\":4349:4355   */\n      dup3\n        /* \"#utility.yul\":4342:4346   */\n      0x20\n        /* \"#utility.yul\":4334:4340   */\n      dup7\n        /* \"#utility.yul\":4330:4347   */\n      add\n        /* \"#utility.yul\":4282:4361   */\n      tag_74\n      jump\t// in\n    tag_137:\n        /* \"#utility.yul\":4273:4361   */\n      swap2\n      pop\n        /* \"#utility.yul\":4089:4367   */\n      pop\n        /* \"#utility.yul\":4027:4367   */\n      swap3\n      swap2\n      pop\n      pop\n      jump\t// out\n        /* \"#utility.yul\":4373:4882   */\n    tag_15:\n        /* \"#utility.yul\":4442:4448   */\n      0x00\n        /* \"#utility.yul\":4491:4493   */\n      0x20\n        /* \"#utility.yul\":4479:4488   */\n      dup3\n        /* \"#utility.yul\":4470:4477   */\n      dup5\n        /* \"#utility.yul\":4466:4489   */\n      sub\n        /* \"#utility.yul\":4462:4494   */\n      slt\n        /* \"#utility.yul\":4459:4578   */\n      iszero\n      tag_139\n      jumpi\n        /* \"#utility.yul\":4497:4576   */\n      tag_140\n      tag_57\n      jump\t// in\n    tag_140:\n        /* \"#utility.yul\":4459:4578   */\n    tag_139:\n        /* \"#utility.yul\":4645:4646   */\n      0x00\n        /* \"#utility.yul\":4634:4643   */\n      dup3\n        /* \"#utility.yul\":4630:4647   */\n      add\n        /* \"#utility.yul\":4617:4648   */\n      calldataload\n        /* \"#utility.yul\":4675:4693   */\n      0xffffffffffffffff\n        /* \"#utility.yul\":4667:4673   */\n      dup2\n        /* \"#utility.yul\":4664:4694   */\n      gt\n        /* \"#utility.yul\":4661:4778   */\n      iszero\n      tag_141\n      jumpi\n        /* \"#utility.yul\":4697:4776   */\n      tag_142\n      tag_58\n      jump\t// in\n    tag_142:\n        /* \"#utility.yul\":4661:4778   */\n    tag_141:\n        /* \"#utility.yul\":4802:4865   */\n      tag_143\n        /* \"#utility.yul\":4857:4864   */\n      dup5\n        /* \"#utility.yul\":4848:4854   */\n      dup3\n        /* \"#utility.yul\":4837:4846   */\n      dup6\n        /* \"#utility.yul\":4833:4855   */\n      add\n        /* \"#utility.yul\":4802:4865   */\n      tag_75\n      jump\t// in\n    tag_143:\n        /* \"#utility.yul\":4792:4865   */\n      swap2\n      pop\n        /* \"#utility.yul\":4588:4875   */\n      pop\n        /* \"#utility.yul\":4373:4882   */\n      swap3\n      swap2\n      pop\n      pop\n      jump\t// out\n        /* \"#utility.yul\":4888:5006   */\n    tag_76:\n        /* \"#utility.yul\":4975:4999   */\n      tag_145\n        /* \"#utility.yul\":4993:4998   */\n      dup2\n        /* \"#utility.yul\":4975:4999   */\n      tag_59\n      jump\t// in\n    tag_145:\n        /* \"#utility.yul\":4970:4973   */\n      dup3\n        /* \"#utility.yul\":4963:5000   */\n      mstore\n        /* \"#utility.yul\":4888:5006   */\n      pop\n      pop\n      jump\t// out\n        /* \"#utility.yul\":5012:5234   */\n    tag_18:\n        /* \"#utility.yul\":5105:5109   */\n      0x00\n        /* \"#utility.yul\":5143:5145   */\n      0x20\n        /* \"#utility.yul\":5132:5141   */\n      dup3\n        /* \"#utility.yul\":5128:5146   */\n      add\n        /* \"#utility.yul\":5120:5146   */\n      swap1\n      pop\n        /* \"#utility.yul\":5156:5227   */\n      tag_147\n        /* \"#utility.yul\":5224:5225   */\n      0x00\n        /* \"#utility.yul\":5213:5222   */\n      dup4\n        /* \"#utility.yul\":5209:5226   */\n      add\n        /* \"#utility.yul\":5200:5206   */\n      dup5\n        /* \"#utility.yul\":5156:5227   */\n      tag_76\n      jump\t// in\n    tag_147:\n        /* \"#utility.yul\":5012:5234   */\n      swap3\n      swap2\n      pop\n      pop\n      jump\t// out\n        /* \"#utility.yul\":5240:5366   */\n    tag_77:\n        /* \"#utility.yul\":5277:5284   */\n      0x00\n        /* \"#utility.yul\":5317:5359   */\n      0xffffffffffffffffffffffffffffffffffffffff\n        /* \"#utility.yul\":5310:5315   */\n      dup3\n        /* \"#utility.yul\":5306:5360   */\n      and\n        /* \"#utility.yul\":5295:5360   */\n      swap1\n      pop\n        /* \"#utility.yul\":5240:5366   */\n      swap2\n      swap1\n      pop\n      jump\t// out\n        /* \"#utility.yul\":5372:5468   */\n    tag_78:\n        /* \"#utility.yul\":5409:5416   */\n      0x00\n        /* \"#utility.yul\":5438:5462   */\n      tag_150\n        /* \"#utility.yul\":5456:5461   */\n      dup3\n        /* \"#utility.yul\":5438:5462   */\n      tag_77\n      jump\t// in\n    tag_150:\n        /* \"#utility.yul\":5427:5462   */\n      swap1\n      pop\n        /* \"#utility.yul\":5372:5468   */\n      swap2\n      swap1\n      pop\n      jump\t// out\n        /* \"#utility.yul\":5474:5592   */\n    tag_79:\n        /* \"#utility.yul\":5561:5585   */\n      tag_152\n        /* \"#utility.yul\":5579:5584   */\n      dup2\n        /* \"#utility.yul\":5561:5585   */\n      tag_78\n      jump\t// in\n    tag_152:\n        /* \"#utility.yul\":5556:5559   */\n      dup3\n        /* \"#utility.yul\":5549:5586   */\n      mstore\n        /* \"#utility.yul\":5474:5592   */\n      pop\n      pop\n      jump\t// out\n        /* \"#utility.yul\":5598:5820   */\n    tag_23:\n        /* \"#utility.yul\":5691:5695   */\n      0x00\n        /* \"#utility.yul\":5729:5731   */\n      0x20\n        /* \"#utility.yul\":5718:5727   */\n      dup3\n        /* \"#utility.yul\":5714:5732   */\n      add\n        /* \"#utility.yul\":5706:5732   */\n      swap1\n      pop\n        /* \"#utility.yul\":5742:5813   */\n      tag_154\n        /* \"#utility.yul\":5810:5811   */\n      0x00\n        /* \"#utility.yul\":5799:5808   */\n      dup4\n        /* \"#utility.yul\":5795:5812   */\n      add\n        /* \"#utility.yul\":5786:5792   */\n      dup5\n        /* \"#utility.yul\":5742:5813   */\n      tag_79\n      jump\t// in\n    tag_154:\n        /* \"#utility.yul\":5598:5820   */\n      swap3\n      swap2\n      pop\n      pop\n      jump\t// out\n        /* \"#utility.yul\":5826:6006   */\n    tag_80:\n        /* \"#utility.yul\":5874:5951   */\n      0x4e487b7100000000000000000000000000000000000000000000000000000000\n        /* \"#utility.yul\":5871:5872   */\n      0x00\n        /* \"#utility.yul\":5864:5952   */\n      mstore\n        /* \"#utility.yul\":5971:5975   */\n      0x22\n        /* \"#utility.yul\":5968:5969   */\n      0x04\n        /* \"#utility.yul\":5961:5976   */\n      mstore\n        /* \"#utility.yul\":5995:5999   */\n      0x24\n        /* \"#utility.yul\":5992:5993   */\n      0x00\n        /* \"#utility.yul\":5985:6000   */\n      revert\n        /* \"#utility.yul\":6012:6332   */\n    tag_30:\n        /* \"#utility.yul\":6056:6062   */\n      0x00\n        /* \"#utility.yul\":6093:6094   */\n      0x02\n        /* \"#utility.yul\":6087:6091   */\n      dup3\n        /* \"#utility.yul\":6083:6095   */\n      div\n        /* \"#utility.yul\":6073:6095   */\n      swap1\n      pop\n        /* \"#utility.yul\":6140:6141   */\n      0x01\n        /* \"#utility.yul\":6134:6138   */\n      dup3\n        /* \"#utility.yul\":6130:6142   */\n      and\n        /* \"#utility.yul\":6161:6179   */\n      dup1\n        /* \"#utility.yul\":6151:6232   */\n      tag_157\n      jumpi\n        /* \"#utility.yul\":6217:6221   */\n      0x7f\n        /* \"#utility.yul\":6209:6215   */\n      dup3\n        /* \"#utility.yul\":6205:6222   */\n      and\n        /* \"#utility.yul\":6195:6222   */\n      swap2\n      pop\n        /* \"#utility.yul\":6151:6232   */\n    tag_157:\n        /* \"#utility.yul\":6279:6281   */\n      0x20\n        /* \"#utility.yul\":6271:6277   */\n      dup3\n        /* \"#utility.yul\":6268:6282   */\n      lt\n        /* \"#utility.yul\":6248:6266   */\n      dup2\n        /* \"#utility.yul\":6245:6283   */\n      sub\n        /* \"#utility.yul\":6242:6326   */\n      tag_158\n      jumpi\n        /* \"#utility.yul\":6298:6316   */\n      tag_159\n      tag_80\n      jump\t// in\n    tag_159:\n        /* \"#utility.yul\":6242:6326   */\n    tag_158:\n        /* \"#utility.yul\":6063:6332   */\n      pop\n        /* \"#utility.yul\":6012:6332   */\n      swap2\n      swap1\n      pop\n      jump\t// out\n        /* \"#utility.yul\":6338:6486   */\n    tag_81:\n        /* \"#utility.yul\":6440:6451   */\n      0x00\n        /* \"#utility.yul\":6477:6480   */\n      dup2\n        /* \"#utility.yul\":6462:6480   */\n      swap1\n      pop\n        /* \"#utility.yul\":6338:6486   */\n      swap3\n      swap2\n      pop\n      pop\n      jump\t// out\n        /* \"#utility.yul\":6492:6882   */\n    tag_82:\n        /* \"#utility.yul\":6598:6601   */\n      0x00\n        /* \"#utility.yul\":6626:6665   */\n      tag_162\n        /* \"#utility.yul\":6659:6664   */\n      dup3\n        /* \"#utility.yul\":6626:6665   */\n      tag_62\n      jump\t// in\n    tag_162:\n        /* \"#utility.yul\":6681:6770   */\n      tag_163\n        /* \"#utility.yul\":6763:6769   */\n      dup2\n        /* \"#utility.yul\":6758:6761   */\n      dup6\n        /* \"#utility.yul\":6681:6770   */\n      tag_81\n      jump\t// in\n    tag_163:\n        /* \"#utility.yul\":6674:6770   */\n      swap4\n      pop\n        /* \"#utility.yul\":6779:6844   */\n      tag_164\n        /* \"#utility.yul\":6837:6843   */\n      dup2\n        /* \"#utility.yul\":6832:6835   */\n      dup6\n        /* \"#utility.yul\":6825:6829   */\n      0x20\n        /* \"#utility.yul\":6818:6823   */\n      dup7\n        /* \"#utility.yul\":6814:6830   */\n      add\n        /* \"#utility.yul\":6779:6844   */\n      tag_64\n      jump\t// in\n    tag_164:\n        /* \"#utility.yul\":6869:6875   */\n      dup1\n        /* \"#utility.yul\":6864:6867   */\n      dup5\n        /* \"#utility.yul\":6860:6876   */\n      add\n        /* \"#utility.yul\":6853:6876   */\n      swap2\n      pop\n        /* \"#utility.yul\":6602:6882   */\n      pop\n        /* \"#utility.yul\":6492:6882   */\n      swap3\n      swap2\n      pop\n      pop\n      jump\t// out\n        /* \"#utility.yul\":6888:7163   */\n    tag_42:\n        /* \"#utility.yul\":7020:7023   */\n      0x00\n        /* \"#utility.yul\":7042:7137   */\n      tag_166\n        /* \"#utility.yul\":7133:7136   */\n      dup3\n        /* \"#utility.yul\":7124:7130   */\n      dup5\n        /* \"#utility.yul\":7042:7137   */\n      tag_82\n      jump\t// in\n    tag_166:\n        /* \"#utility.yul\":7035:7137   */\n      swap2\n      pop\n        /* \"#utility.yul\":7154:7157   */\n      dup2\n        /* \"#utility.yul\":7147:7157   */\n      swap1\n      pop\n        /* \"#utility.yul\":6888:7163   */\n      swap3\n      swap2\n      pop\n      pop\n      jump\t// out\n        /* \"#utility.yul\":7169:7349   */\n    tag_45:\n        /* \"#utility.yul\":7217:7294   */\n      0x4e487b7100000000000000000000000000000000000000000000000000000000\n        /* \"#utility.yul\":7214:7215   */\n      0x00\n        /* \"#utility.yul\":7207:7295   */\n      mstore\n        /* \"#utility.yul\":7314:7318   */\n      0x32\n        /* \"#utility.yul\":7311:7312   */\n      0x04\n        /* \"#utility.yul\":7304:7319   */\n      mstore\n        /* \"#utility.yul\":7338:7342   */\n      0x24\n        /* \"#utility.yul\":7335:7336   */\n      0x00\n        /* \"#utility.yul\":7328:7343   */\n      revert\n        /* \"#utility.yul\":7355:7496   */\n    tag_83:\n        /* \"#utility.yul\":7404:7408   */\n      0x00\n        /* \"#utility.yul\":7427:7430   */\n      dup2\n        /* \"#utility.yul\":7419:7430   */\n      swap1\n      pop\n        /* \"#utility.yul\":7450:7453   */\n      dup2\n        /* \"#utility.yul\":7447:7448   */\n      0x00\n        /* \"#utility.yul\":7440:7454   */\n      mstore\n        /* \"#utility.yul\":7484:7488   */\n      0x20\n        /* \"#utility.yul\":7481:7482   */\n      0x00\n        /* \"#utility.yul\":7471:7489   */\n      keccak256\n        /* \"#utility.yul\":7463:7489   */\n      swap1\n      pop\n        /* \"#utility.yul\":7355:7496   */\n      swap2\n      swap1\n      pop\n      jump\t// out\n        /* \"#utility.yul\":7526:8400   */\n    tag_84:\n        /* \"#utility.yul\":7629:7632   */\n      0x00\n        /* \"#utility.yul\":7666:7671   */\n      dup2\n        /* \"#utility.yul\":7660:7672   */\n      sload\n        /* \"#utility.yul\":7695:7731   */\n      tag_170\n        /* \"#utility.yul\":7721:7730   */\n      dup2\n        /* \"#utility.yul\":7695:7731   */\n      tag_30\n      jump\t// in\n    tag_170:\n        /* \"#utility.yul\":7747:7836   */\n      tag_171\n        /* \"#utility.yul\":7829:7835   */\n      dup2\n        /* \"#utility.yul\":7824:7827   */\n      dup7\n        /* \"#utility.yul\":7747:7836   */\n      tag_81\n      jump\t// in\n    tag_171:\n        /* \"#utility.yul\":7740:7836   */\n      swap5\n      pop\n        /* \"#utility.yul\":7867:7868   */\n      0x01\n        /* \"#utility.yul\":7856:7865   */\n      dup3\n        /* \"#utility.yul\":7852:7869   */\n      and\n        /* \"#utility.yul\":7883:7884   */\n      0x00\n        /* \"#utility.yul\":7878:8044   */\n      dup2\n      eq\n      tag_173\n      jumpi\n        /* \"#utility.yul\":8058:8059   */\n      0x01\n        /* \"#utility.yul\":8053:8394   */\n      dup2\n      eq\n      tag_174\n      jumpi\n        /* \"#utility.yul\":7845:8394   */\n      jump(tag_172)\n        /* \"#utility.yul\":7878:8044   */\n    tag_173:\n        /* \"#utility.yul\":7962:7966   */\n      0xff\n        /* \"#utility.yul\":7958:7967   */\n      not\n        /* \"#utility.yul\":7947:7956   */\n      dup4\n        /* \"#utility.yul\":7943:7968   */\n      and\n        /* \"#utility.yul\":7938:7941   */\n      dup7\n        /* \"#utility.yul\":7931:7969   */\n      mstore\n        /* \"#utility.yul\":8024:8030   */\n      dup2\n        /* \"#utility.yul\":8017:8031   */\n      iszero\n        /* \"#utility.yul\":8010:8032   */\n      iszero\n        /* \"#utility.yul\":8002:8008   */\n      dup3\n        /* \"#utility.yul\":7998:8033   */\n      mul\n        /* \"#utility.yul\":7993:7996   */\n      dup7\n        /* \"#utility.yul\":7989:8034   */\n      add\n        /* \"#utility.yul\":7982:8034   */\n      swap4\n      pop\n        /* \"#utility.yul\":7878:8044   */\n      jump(tag_172)\n        /* \"#utility.yul\":8053:8394   */\n    tag_174:\n        /* \"#utility.yul\":8120:8158   */\n      tag_175\n        /* \"#utility.yul\":8152:8157   */\n      dup6\n        /* \"#utility.yul\":8120:8158   */\n      tag_83\n      jump\t// in\n    tag_175:\n        /* \"#utility.yul\":8180:8181   */\n      0x00\n        /* \"#utility.yul\":8194:8348   */\n    tag_176:\n        /* \"#utility.yul\":8208:8214   */\n      dup4\n        /* \"#utility.yul\":8205:8206   */\n      dup2\n        /* \"#utility.yul\":8202:8215   */\n      lt\n        /* \"#utility.yul\":8194:8348   */\n      iszero\n      tag_178\n      jumpi\n        /* \"#utility.yul\":8282:8289   */\n      dup2\n        /* \"#utility.yul\":8276:8290   */\n      sload\n        /* \"#utility.yul\":8272:8273   */\n      dup2\n        /* \"#utility.yul\":8267:8270   */\n      dup10\n        /* \"#utility.yul\":8263:8274   */\n      add\n        /* \"#utility.yul\":8256:8291   */\n      mstore\n        /* \"#utility.yul\":8332:8333   */\n      0x01\n        /* \"#utility.yul\":8323:8330   */\n      dup3\n        /* \"#utility.yul\":8319:8334   */\n      add\n        /* \"#utility.yul\":8308:8334   */\n      swap2\n      pop\n        /* \"#utility.yul\":8230:8234   */\n      0x20\n        /* \"#utility.yul\":8227:8228   */\n      dup2\n        /* \"#utility.yul\":8223:8235   */\n      add\n        /* \"#utility.yul\":8218:8235   */\n      swap1\n      pop\n        /* \"#utility.yul\":8194:8348   */\n      jump(tag_176)\n    tag_178:\n        /* \"#utility.yul\":8377:8383   */\n      dup4\n        /* \"#utility.yul\":8372:8375   */\n      dup9\n        /* \"#utility.yul\":8368:8384   */\n      add\n        /* \"#utility.yul\":8361:8384   */\n      swap6\n      pop\n        /* \"#utility.yul\":8060:8394   */\n      pop\n      pop\n        /* \"#utility.yul\":7845:8394   */\n    tag_172:\n      pop\n        /* \"#utility.yul\":7633:8400   */\n      pop\n      pop\n        /* \"#utility.yul\":7526:8400   */\n      swap3\n      swap2\n      pop\n      pop\n      jump\t// out\n        /* \"#utility.yul\":8406:8675   */\n    tag_48:\n        /* \"#utility.yul\":8535:8538   */\n      0x00\n        /* \"#utility.yul\":8557:8649   */\n      tag_180\n        /* \"#utility.yul\":8645:8648   */\n      dup3\n        /* \"#utility.yul\":8636:8642   */\n      dup5\n        /* \"#utility.yul\":8557:8649   */\n      tag_84\n      jump\t// in\n    tag_180:\n        /* \"#utility.yul\":8550:8649   */\n      swap2\n      pop\n        /* \"#utility.yul\":8666:8669   */\n      dup2\n        /* \"#utility.yul\":8659:8669   */\n      swap1\n      pop\n        /* \"#utility.yul\":8406:8675   */\n      swap3\n      swap2\n      pop\n      pop\n      jump\t// out\n        /* \"#utility.yul\":8681:8861   */\n    tag_85:\n        /* \"#utility.yul\":8729:8806   */\n      0x4e487b7100000000000000000000000000000000000000000000000000000000\n        /* \"#utility.yul\":8726:8727   */\n      0x00\n        /* \"#utility.yul\":8719:8807   */\n      mstore\n        /* \"#utility.yul\":8826:8830   */\n      0x11\n        /* \"#utility.yul\":8823:8824   */\n      0x04\n        /* \"#utility.yul\":8816:8831   */\n      mstore\n        /* \"#utility.yul\":8850:8854   */\n      0x24\n        /* \"#utility.yul\":8847:8848   */\n      0x00\n        /* \"#utility.yul\":8840:8855   */\n      revert\n        /* \"#utility.yul\":8867:9100   */\n    tag_53:\n        /* \"#utility.yul\":8906:8909   */\n      0x00\n        /* \"#utility.yul\":8929:8953   */\n      tag_183\n        /* \"#utility.yul\":8947:8952   */\n      dup3\n        /* \"#utility.yul\":8929:8953   */\n      tag_59\n      jump\t// in\n    tag_183:\n        /* \"#utility.yul\":8920:8953   */\n      swap2\n      pop\n        /* \"#utility.yul\":8975:9041   */\n      0xffffffffffffffffffffffffffffffffffffffffffffffffffffffffffffffff\n        /* \"#utility.yul\":8968:8973   */\n      dup3\n        /* \"#utility.yul\":8965:9042   */\n      sub\n        /* \"#utility.yul\":8962:9065   */\n      tag_184\n      jumpi\n        /* \"#utility.yul\":9045:9063   */\n      tag_185\n      tag_85\n      jump\t// in\n    tag_185:\n        /* \"#utility.yul\":8962:9065   */\n    tag_184:\n        /* \"#utility.yul\":9092:9093   */\n      0x01\n        /* \"#utility.yul\":9085:9090   */\n      dup3\n        /* \"#utility.yul\":9081:9094   */\n      add\n        /* \"#utility.yul\":9074:9094   */\n      swap1\n      pop\n        /* \"#utility.yul\":8867:9100   */\n      swap2\n      swap1\n      pop\n      jump\t// out\n        /* \"#utility.yul\":9106:9274   */\n    tag_86:\n        /* \"#utility.yul\":9246:9266   */\n      0x496e76616c69642063616e6469646174652e0000000000000000000000000000\n        /* \"#utility.yul\":9242:9243   */\n      0x00\n        /* \"#utility.yul\":9234:9240   */\n      dup3\n        /* \"#utility.yul\":9230:9244   */\n      add\n        /* \"#utility.yul\":9223:9267   */\n      mstore\n        /* \"#utility.yul\":9106:9274   */\n      pop\n      jump\t// out\n        /* \"#utility.yul\":9280:9646   */\n    tag_87:\n        /* \"#utility.yul\":9422:9425   */\n      0x00\n        /* \"#utility.yul\":9443:9510   */\n      tag_188\n        /* \"#utility.yul\":9507:9509   */\n      0x12\n        /* \"#utility.yul\":9502:9505   */\n      dup4\n        /* \"#utility.yul\":9443:9510   */\n      tag_63\n      jump\t// in\n    tag_188:\n        /* \"#utility.yul\":9436:9510   */\n      swap2\n      pop\n        /* \"#utility.yul\":9519:9612   */\n      tag_189\n        /* \"#utility.yul\":9608:9611   */\n      dup3\n        /* \"#utility.yul\":9519:9612   */\n      tag_86\n      jump\t// in\n    tag_189:\n        /* \"#utility.yul\":9637:9639   */\n      0x20\n        /* \"#utility.yul\":9632:9635   */\n      dup3\n        /* \"#utility.yul\":9628:9640   */\n      add\n        /* \"#utility.yul\":9621:9640   */\n      swap1\n      pop\n        /* \"#utility.yul\":9280:9646   */\n      swap2\n      swap1\n      pop\n      jump\t// out\n        /* \"#utility.yul\":9652:10071   */\n    tag_55:\n        /* \"#utility.yul\":9818:9822   */\n      0x00\n        /* \"#utility.yul\":9856:9858   */\n      0x20\n        /* \"#utility.yul\":9845:9854   */\n      dup3\n        /* \"#utility.yul\":9841:9859   */\n      add\n        /* \"#utility.yul\":9833:9859   */\n      swap1\n      pop\n        /* \"#utility.yul\":9905:9914   */\n      dup2\n        /* \"#utility.yul\":9899:9903   */\n      dup2\n        /* \"#utility.yul\":9895:9915   */\n      sub\n        /* \"#utility.yul\":9891:9892   */\n      0x00\n        /* \"#utility.yul\":9880:9889   */\n      dup4\n        /* \"#utility.yul\":9876:9893   */\n      add\n        /* \"#utility.yul\":9869:9916   */\n      mstore\n        /* \"#utility.yul\":9933:10064   */\n      tag_191\n        /* \"#utility.yul\":10059:10063   */\n      dup2\n        /* \"#utility.yul\":9933:10064   */\n      tag_87\n      jump\t// in\n    tag_191:\n        /* \"#utility.yul\":9925:10064   */\n      swap1\n      pop\n        /* \"#utility.yul\":9652:10071   */\n      swap2\n      swap1\n      pop\n      jump\t// out\n\n    auxdata: 0xa26469706673582212200bdb059aa5210cbbde0c541a0786c8e2275557be750a618d671052aeca37715364736f6c63430008190033\n}\n",
				"bytecode": {
					"linkReferences": {},
					"object": "608060405234801561000f575f80fd5b50604051610f04380380610f048339818101604052810190610031919061034e565b805f908051906020019061004692919061004d565b5050610671565b828054828255905f5260205f20908101928215610093579160200282015b8281111561009257825182908161008291906105a2565b509160200191906001019061006b565b5b5090506100a091906100a4565b5090565b5b808211156100c3575f81816100ba91906100c7565b506001016100a5565b5090565b5080546100d3906103cc565b5f825580601f106100e45750610101565b601f0160209004905f5260205f20908101906101009190610104565b5b50565b5b8082111561011b575f815f905550600101610105565b5090565b5f604051905090565b5f80fd5b5f80fd5b5f80fd5b5f601f19601f8301169050919050565b7f4e487b71000000000000000000000000000000000000000000000000000000005f52604160045260245ffd5b61017a82610134565b810181811067ffffffffffffffff8211171561019957610198610144565b5b80604052505050565b5f6101ab61011f565b90506101b78282610171565b919050565b5f67ffffffffffffffff8211156101d6576101d5610144565b5b602082029050602081019050919050565b5f80fd5b5f80fd5b5f67ffffffffffffffff82111561020957610208610144565b5b61021282610134565b9050602081019050919050565b8281835e5f83830152505050565b5f61023f61023a846101ef565b6101a2565b90508281526020810184848401111561025b5761025a6101eb565b5b61026684828561021f565b509392505050565b5f82601f83011261028257610281610130565b5b815161029284826020860161022d565b91505092915050565b5f6102ad6102a8846101bc565b6101a2565b905080838252602082019050602084028301858111156102d0576102cf6101e7565b5b835b8181101561031757805167ffffffffffffffff8111156102f5576102f4610130565b5b808601610302898261026e565b855260208501945050506020810190506102d2565b5050509392505050565b5f82601f83011261033557610334610130565b5b815161034584826020860161029b565b91505092915050565b5f6020828403121561036357610362610128565b5b5f82015167ffffffffffffffff8111156103805761037f61012c565b5b61038c84828501610321565b91505092915050565b5f81519050919050565b7f4e487b71000000000000000000000000000000000000000000000000000000005f52602260045260245ffd5b5f60028204905060018216806103e357607f821691505b6020821081036103f6576103f561039f565b5b50919050565b5f819050815f5260205f209050919050565b5f6020601f8301049050919050565b5f82821b905092915050565b5f600883026104587fffffffffffffffffffffffffffffffffffffffffffffffffffffffffffffffff8261041d565b610462868361041d565b95508019841693508086168417925050509392505050565b5f819050919050565b5f819050919050565b5f6104a66104a161049c8461047a565b610483565b61047a565b9050919050565b5f819050919050565b6104bf8361048c565b6104d36104cb826104ad565b848454610429565b825550505050565b5f90565b6104e76104db565b6104f28184846104b6565b505050565b5b818110156105155761050a5f826104df565b6001810190506104f8565b5050565b601f82111561055a5761052b816103fc565b6105348461040e565b81016020851015610543578190505b61055761054f8561040e565b8301826104f7565b50505b505050565b5f82821c905092915050565b5f61057a5f198460080261055f565b1980831691505092915050565b5f610592838361056b565b9150826002028217905092915050565b6105ab82610395565b67ffffffffffffffff8111156105c4576105c3610144565b5b6105ce82546103cc565b6105d9828285610519565b5f60209050601f83116001811461060a575f84156105f8578287015190505b6106028582610587565b865550610669565b601f198416610618866103fc565b5f5b8281101561063f5784890151825560018201915060208501945060208101905061061a565b8683101561065c5784890151610658601f89168261056b565b8355505b6001600288020188555050505b505050505050565b6108868061067e5f395ff3fe608060405234801561000f575f80fd5b506004361061004a575f3560e01c80633477ee2e1461004e578063b99ef1fa1461007e578063da58c7d9146100ae578063fc36e15b146100de575b5f80fd5b61006860048036038101906100639190610344565b6100fa565b60405161007591906103df565b60405180910390f35b6100986004803603810190610093919061052b565b61019f565b6040516100a59190610581565b60405180910390f35b6100c860048036038101906100c39190610344565b6101cc565b6040516100d591906105d9565b60405180910390f35b6100f860048036038101906100f3919061052b565b610207565b005b5f8181548110610108575f80fd5b905f5260205f20015f9150905080546101209061061f565b80601f016020809104026020016040519081016040528092919081815260200182805461014c9061061f565b80156101975780601f1061016e57610100808354040283529160200191610197565b820191905f5260205f20905b81548152906001019060200180831161017a57829003601f168201915b505050505081565b6002818051602081018201805184825260208301602085012081835280955050505050505f915090505481565b600181815481106101db575f80fd5b905f5260205f20015f915054906101000a900473ffffffffffffffffffffffffffffffffffffffff1681565b805f5b5f805490508110156102c457816040516020016102279190610689565b604051602081830303815290604052805190602001205f82815481106102505761024f61069f565b5b905f5260205f2001604051602001610268919061075e565b60405160208183030381529060405280519060200120036102b7576002836040516102939190610689565b90815260200160405180910390205f8154809291906102b1906107a1565b91905055505b808060010191505061020a565b506040517f08c379a00000000000000000000000000000000000000000000000000000000081526004016102f790610832565b60405180910390fd5b5f604051905090565b5f80fd5b5f80fd5b5f819050919050565b61032381610311565b811461032d575f80fd5b50565b5f8135905061033e8161031a565b92915050565b5f6020828403121561035957610358610309565b5b5f61036684828501610330565b91505092915050565b5f81519050919050565b5f82825260208201905092915050565b8281835e5f83830152505050565b5f601f19601f8301169050919050565b5f6103b18261036f565b6103bb8185610379565b93506103cb818560208601610389565b6103d481610397565b840191505092915050565b5f6020820190508181035f8301526103f781846103a7565b905092915050565b5f80fd5b5f80fd5b7f4e487b71000000000000000000000000000000000000000000000000000000005f52604160045260245ffd5b61043d82610397565b810181811067ffffffffffffffff8211171561045c5761045b610407565b5b80604052505050565b5f61046e610300565b905061047a8282610434565b919050565b5f67ffffffffffffffff82111561049957610498610407565b5b6104a282610397565b9050602081019050919050565b828183375f83830152505050565b5f6104cf6104ca8461047f565b610465565b9050828152602081018484840111156104eb576104ea610403565b5b6104f68482856104af565b509392505050565b5f82601f830112610512576105116103ff565b5b81356105228482602086016104bd565b91505092915050565b5f602082840312156105405761053f610309565b5b5f82013567ffffffffffffffff81111561055d5761055c61030d565b5b610569848285016104fe565b91505092915050565b61057b81610311565b82525050565b5f6020820190506105945f830184610572565b92915050565b5f73ffffffffffffffffffffffffffffffffffffffff82169050919050565b5f6105c38261059a565b9050919050565b6105d3816105b9565b82525050565b5f6020820190506105ec5f8301846105ca565b92915050565b7f4e487b71000000000000000000000000000000000000000000000000000000005f52602260045260245ffd5b5f600282049050600182168061063657607f821691505b602082108103610649576106486105f2565b5b50919050565b5f81905092915050565b5f6106638261036f565b61066d818561064f565b935061067d818560208601610389565b80840191505092915050565b5f6106948284610659565b915081905092915050565b7f4e487b71000000000000000000000000000000000000000000000000000000005f52603260045260245ffd5b5f819050815f5260205f209050919050565b5f81546106ea8161061f565b6106f4818661064f565b9450600182165f811461070e576001811461072357610755565b60ff1983168652811515820286019350610755565b61072c856106cc565b5f5b8381101561074d5781548189015260018201915060208101905061072e565b838801955050505b50505092915050565b5f61076982846106de565b915081905092915050565b7f4e487b71000000000000000000000000000000000000000000000000000000005f52601160045260245ffd5b5f6107ab82610311565b91507fffffffffffffffffffffffffffffffffffffffffffffffffffffffffffffffff82036107dd576107dc610774565b5b600182019050919050565b7f496e76616c69642063616e6469646174652e00000000000000000000000000005f82015250565b5f61081c601283610379565b9150610827826107e8565b602082019050919050565b5f6020820190508181035f83015261084981610810565b905091905056fea26469706673582212200bdb059aa5210cbbde0c541a0786c8e2275557be750a618d671052aeca37715364736f6c63430008190033",
					"opcodes": "PUSH1 0x80 PUSH1 0x40 MSTORE CALLVALUE DUP1 ISZERO PUSH2 0xF JUMPI PUSH0 DUP1 REVERT JUMPDEST POP PUSH1 0x40 MLOAD PUSH2 0xF04 CODESIZE SUB DUP1 PUSH2 0xF04 DUP4 CODECOPY DUP2 DUP2 ADD PUSH1 0x40 MSTORE DUP2 ADD SWAP1 PUSH2 0x31 SWAP2 SWAP1 PUSH2 0x34E JUMP JUMPDEST DUP1 PUSH0 SWAP1 DUP1 MLOAD SWAP1 PUSH1 0x20 ADD SWAP1 PUSH2 0x46 SWAP3 SWAP2 SWAP1 PUSH2 0x4D JUMP JUMPDEST POP POP PUSH2 0x671 JUMP JUMPDEST DUP3 DUP1 SLOAD DUP3 DUP3 SSTORE SWAP1 PUSH0 MSTORE PUSH1 0x20 PUSH0 KECCAK256 SWAP1 DUP2 ADD SWAP3 DUP3 ISZERO PUSH2 0x93 JUMPI SWAP2 PUSH1 0x20 MUL DUP3 ADD JUMPDEST DUP3 DUP2 GT ISZERO PUSH2 0x92 JUMPI DUP3 MLOAD DUP3 SWAP1 DUP2 PUSH2 0x82 SWAP2 SWAP1 PUSH2 0x5A2 JUMP JUMPDEST POP SWAP2 PUSH1 0x20 ADD SWAP2 SWAP1 PUSH1 0x1 ADD SWAP1 PUSH2 0x6B JUMP JUMPDEST JUMPDEST POP SWAP1 POP PUSH2 0xA0 SWAP2 SWAP1 PUSH2 0xA4 JUMP JUMPDEST POP SWAP1 JUMP JUMPDEST JUMPDEST DUP1 DUP3 GT ISZERO PUSH2 0xC3 JUMPI PUSH0 DUP2 DUP2 PUSH2 0xBA SWAP2 SWAP1 PUSH2 0xC7 JUMP JUMPDEST POP PUSH1 0x1 ADD PUSH2 0xA5 JUMP JUMPDEST POP SWAP1 JUMP JUMPDEST POP DUP1 SLOAD PUSH2 0xD3 SWAP1 PUSH2 0x3CC JUMP JUMPDEST PUSH0 DUP3 SSTORE DUP1 PUSH1 0x1F LT PUSH2 0xE4 JUMPI POP PUSH2 0x101 JUMP JUMPDEST PUSH1 0x1F ADD PUSH1 0x20 SWAP1 DIV SWAP1 PUSH0 MSTORE PUSH1 0x20 PUSH0 KECCAK256 SWAP1 DUP2 ADD SWAP1 PUSH2 0x100 SWAP2 SWAP1 PUSH2 0x104 JUMP JUMPDEST JUMPDEST POP JUMP JUMPDEST JUMPDEST DUP1 DUP3 GT ISZERO PUSH2 0x11B JUMPI PUSH0 DUP2 PUSH0 SWAP1 SSTORE POP PUSH1 0x1 ADD PUSH2 0x105 JUMP JUMPDEST POP SWAP1 JUMP JUMPDEST PUSH0 PUSH1 0x40 MLOAD SWAP1 POP SWAP1 JUMP JUMPDEST PUSH0 DUP1 REVERT JUMPDEST PUSH0 DUP1 REVERT JUMPDEST PUSH0 DUP1 REVERT JUMPDEST PUSH0 PUSH1 0x1F NOT PUSH1 0x1F DUP4 ADD AND SWAP1 POP SWAP2 SWAP1 POP JUMP JUMPDEST PUSH32 0x4E487B7100000000000000000000000000000000000000000000000000000000 PUSH0 MSTORE PUSH1 0x41 PUSH1 0x4 MSTORE PUSH1 0x24 PUSH0 REVERT JUMPDEST PUSH2 0x17A DUP3 PUSH2 0x134 JUMP JUMPDEST DUP2 ADD DUP2 DUP2 LT PUSH8 0xFFFFFFFFFFFFFFFF DUP3 GT OR ISZERO PUSH2 0x199 JUMPI PUSH2 0x198 PUSH2 0x144 JUMP JUMPDEST JUMPDEST DUP1 PUSH1 0x40 MSTORE POP POP POP JUMP JUMPDEST PUSH0 PUSH2 0x1AB PUSH2 0x11F JUMP JUMPDEST SWAP1 POP PUSH2 0x1B7 DUP3 DUP3 PUSH2 0x171 JUMP JUMPDEST SWAP2 SWAP1 POP JUMP JUMPDEST PUSH0 PUSH8 0xFFFFFFFFFFFFFFFF DUP3 GT ISZERO PUSH2 0x1D6 JUMPI PUSH2 0x1D5 PUSH2 0x144 JUMP JUMPDEST JUMPDEST PUSH1 0x20 DUP3 MUL SWAP1 POP PUSH1 0x20 DUP2 ADD SWAP1 POP SWAP2 SWAP1 POP JUMP JUMPDEST PUSH0 DUP1 REVERT JUMPDEST PUSH0 DUP1 REVERT JUMPDEST PUSH0 PUSH8 0xFFFFFFFFFFFFFFFF DUP3 GT ISZERO PUSH2 0x209 JUMPI PUSH2 0x208 PUSH2 0x144 JUMP JUMPDEST JUMPDEST PUSH2 0x212 DUP3 PUSH2 0x134 JUMP JUMPDEST SWAP1 POP PUSH1 0x20 DUP2 ADD SWAP1 POP SWAP2 SWAP1 POP JUMP JUMPDEST DUP3 DUP2 DUP4 MCOPY PUSH0 DUP4 DUP4 ADD MSTORE POP POP POP JUMP JUMPDEST PUSH0 PUSH2 0x23F PUSH2 0x23A DUP5 PUSH2 0x1EF JUMP JUMPDEST PUSH2 0x1A2 JUMP JUMPDEST SWAP1 POP DUP3 DUP2 MSTORE PUSH1 0x20 DUP2 ADD DUP5 DUP5 DUP5 ADD GT ISZERO PUSH2 0x25B JUMPI PUSH2 0x25A PUSH2 0x1EB JUMP JUMPDEST JUMPDEST PUSH2 0x266 DUP5 DUP3 DUP6 PUSH2 0x21F JUMP JUMPDEST POP SWAP4 SWAP3 POP POP POP JUMP JUMPDEST PUSH0 DUP3 PUSH1 0x1F DUP4 ADD SLT PUSH2 0x282 JUMPI PUSH2 0x281 PUSH2 0x130 JUMP JUMPDEST JUMPDEST DUP2 MLOAD PUSH2 0x292 DUP5 DUP3 PUSH1 0x20 DUP7 ADD PUSH2 0x22D JUMP JUMPDEST SWAP2 POP POP SWAP3 SWAP2 POP POP JUMP JUMPDEST PUSH0 PUSH2 0x2AD PUSH2 0x2A8 DUP5 PUSH2 0x1BC JUMP JUMPDEST PUSH2 0x1A2 JUMP JUMPDEST SWAP1 POP DUP1 DUP4 DUP3 MSTORE PUSH1 0x20 DUP3 ADD SWAP1 POP PUSH1 0x20 DUP5 MUL DUP4 ADD DUP6 DUP2 GT ISZERO PUSH2 0x2D0 JUMPI PUSH2 0x2CF PUSH2 0x1E7 JUMP JUMPDEST JUMPDEST DUP4 JUMPDEST DUP2 DUP2 LT ISZERO PUSH2 0x317 JUMPI DUP1 MLOAD PUSH8 0xFFFFFFFFFFFFFFFF DUP2 GT ISZERO PUSH2 0x2F5 JUMPI PUSH2 0x2F4 PUSH2 0x130 JUMP JUMPDEST JUMPDEST DUP1 DUP7 ADD PUSH2 0x302 DUP10 DUP3 PUSH2 0x26E JUMP JUMPDEST DUP6 MSTORE PUSH1 0x20 DUP6 ADD SWAP5 POP POP POP PUSH1 0x20 DUP2 ADD SWAP1 POP PUSH2 0x2D2 JUMP JUMPDEST POP POP POP SWAP4 SWAP3 POP POP POP JUMP JUMPDEST PUSH0 DUP3 PUSH1 0x1F DUP4 ADD SLT PUSH2 0x335 JUMPI PUSH2 0x334 PUSH2 0x130 JUMP JUMPDEST JUMPDEST DUP2 MLOAD PUSH2 0x345 DUP5 DUP3 PUSH1 0x20 DUP7 ADD PUSH2 0x29B JUMP JUMPDEST SWAP2 POP POP SWAP3 SWAP2 POP POP JUMP JUMPDEST PUSH0 PUSH1 0x20 DUP3 DUP5 SUB SLT ISZERO PUSH2 0x363 JUMPI PUSH2 0x362 PUSH2 0x128 JUMP JUMPDEST JUMPDEST PUSH0 DUP3 ADD MLOAD PUSH8 0xFFFFFFFFFFFFFFFF DUP2 GT ISZERO PUSH2 0x380 JUMPI PUSH2 0x37F PUSH2 0x12C JUMP JUMPDEST JUMPDEST PUSH2 0x38C DUP5 DUP3 DUP6 ADD PUSH2 0x321 JUMP JUMPDEST SWAP2 POP POP SWAP3 SWAP2 POP POP JUMP JUMPDEST PUSH0 DUP2 MLOAD SWAP1 POP SWAP2 SWAP1 POP JUMP JUMPDEST PUSH32 0x4E487B7100000000000000000000000000000000000000000000000000000000 PUSH0 MSTORE PUSH1 0x22 PUSH1 0x4 MSTORE PUSH1 0x24 PUSH0 REVERT JUMPDEST PUSH0 PUSH1 0x2 DUP3 DIV SWAP1 POP PUSH1 0x1 DUP3 AND DUP1 PUSH2 0x3E3 JUMPI PUSH1 0x7F DUP3 AND SWAP2 POP JUMPDEST PUSH1 0x20 DUP3 LT DUP2 SUB PUSH2 0x3F6 JUMPI PUSH2 0x3F5 PUSH2 0x39F JUMP JUMPDEST JUMPDEST POP SWAP2 SWAP1 POP JUMP JUMPDEST PUSH0 DUP2 SWAP1 POP DUP2 PUSH0 MSTORE PUSH1 0x20 PUSH0 KECCAK256 SWAP1 POP SWAP2 SWAP1 POP JUMP JUMPDEST PUSH0 PUSH1 0x20 PUSH1 0x1F DUP4 ADD DIV SWAP1 POP SWAP2 SWAP1 POP JUMP JUMPDEST PUSH0 DUP3 DUP3 SHL SWAP1 POP SWAP3 SWAP2 POP POP JUMP JUMPDEST PUSH0 PUSH1 0x8 DUP4 MUL PUSH2 0x458 PUSH32 0xFFFFFFFFFFFFFFFFFFFFFFFFFFFFFFFFFFFFFFFFFFFFFFFFFFFFFFFFFFFFFFFF DUP3 PUSH2 0x41D JUMP JUMPDEST PUSH2 0x462 DUP7 DUP4 PUSH2 0x41D JUMP JUMPDEST SWAP6 POP DUP1 NOT DUP5 AND SWAP4 POP DUP1 DUP7 AND DUP5 OR SWAP3 POP POP POP SWAP4 SWAP3 POP POP POP JUMP JUMPDEST PUSH0 DUP2 SWAP1 POP SWAP2 SWAP1 POP JUMP JUMPDEST PUSH0 DUP2 SWAP1 POP SWAP2 SWAP1 POP JUMP JUMPDEST PUSH0 PUSH2 0x4A6 PUSH2 0x4A1 PUSH2 0x49C DUP5 PUSH2 0x47A JUMP JUMPDEST PUSH2 0x483 JUMP JUMPDEST PUSH2 0x47A JUMP JUMPDEST SWAP1 POP SWAP2 SWAP1 POP JUMP JUMPDEST PUSH0 DUP2 SWAP1 POP SWAP2 SWAP1 POP JUMP JUMPDEST PUSH2 0x4BF DUP4 PUSH2 0x48C JUMP JUMPDEST PUSH2 0x4D3 PUSH2 0x4CB DUP3 PUSH2 0x4AD JUMP JUMPDEST DUP5 DUP5 SLOAD PUSH2 0x429 JUMP JUMPDEST DUP3 SSTORE POP POP POP POP JUMP JUMPDEST PUSH0 SWAP1 JUMP JUMPDEST PUSH2 0x4E7 PUSH2 0x4DB JUMP JUMPDEST PUSH2 0x4F2 DUP2 DUP5 DUP5 PUSH2 0x4B6 JUMP JUMPDEST POP POP POP JUMP JUMPDEST JUMPDEST DUP2 DUP2 LT ISZERO PUSH2 0x515 JUMPI PUSH2 0x50A PUSH0 DUP3 PUSH2 0x4DF JUMP JUMPDEST PUSH1 0x1 DUP2 ADD SWAP1 POP PUSH2 0x4F8 JUMP JUMPDEST POP POP JUMP JUMPDEST PUSH1 0x1F DUP3 GT ISZERO PUSH2 0x55A JUMPI PUSH2 0x52B DUP2 PUSH2 0x3FC JUMP JUMPDEST PUSH2 0x534 DUP5 PUSH2 0x40E JUMP JUMPDEST DUP2 ADD PUSH1 0x20 DUP6 LT ISZERO PUSH2 0x543 JUMPI DUP2 SWAP1 POP JUMPDEST PUSH2 0x557 PUSH2 0x54F DUP6 PUSH2 0x40E JUMP JUMPDEST DUP4 ADD DUP3 PUSH2 0x4F7 JUMP JUMPDEST POP POP JUMPDEST POP POP POP JUMP JUMPDEST PUSH0 DUP3 DUP3 SHR SWAP1 POP SWAP3 SWAP2 POP POP JUMP JUMPDEST PUSH0 PUSH2 0x57A PUSH0 NOT DUP5 PUSH1 0x8 MUL PUSH2 0x55F JUMP JUMPDEST NOT DUP1 DUP4 AND SWAP2 POP POP SWAP3 SWAP2 POP POP JUMP JUMPDEST PUSH0 PUSH2 0x592 DUP4 DUP4 PUSH2 0x56B JUMP JUMPDEST SWAP2 POP DUP3 PUSH1 0x2 MUL DUP3 OR SWAP1 POP SWAP3 SWAP2 POP POP JUMP JUMPDEST PUSH2 0x5AB DUP3 PUSH2 0x395 JUMP JUMPDEST PUSH8 0xFFFFFFFFFFFFFFFF DUP2 GT ISZERO PUSH2 0x5C4 JUMPI PUSH2 0x5C3 PUSH2 0x144 JUMP JUMPDEST JUMPDEST PUSH2 0x5CE DUP3 SLOAD PUSH2 0x3CC JUMP JUMPDEST PUSH2 0x5D9 DUP3 DUP3 DUP6 PUSH2 0x519 JUMP JUMPDEST PUSH0 PUSH1 0x20 SWAP1 POP PUSH1 0x1F DUP4 GT PUSH1 0x1 DUP2 EQ PUSH2 0x60A JUMPI PUSH0 DUP5 ISZERO PUSH2 0x5F8 JUMPI DUP3 DUP8 ADD MLOAD SWAP1 POP JUMPDEST PUSH2 0x602 DUP6 DUP3 PUSH2 0x587 JUMP JUMPDEST DUP7 SSTORE POP PUSH2 0x669 JUMP JUMPDEST PUSH1 0x1F NOT DUP5 AND PUSH2 0x618 DUP7 PUSH2 0x3FC JUMP JUMPDEST PUSH0 JUMPDEST DUP3 DUP2 LT ISZERO PUSH2 0x63F JUMPI DUP5 DUP10 ADD MLOAD DUP3 SSTORE PUSH1 0x1 DUP3 ADD SWAP2 POP PUSH1 0x20 DUP6 ADD SWAP5 POP PUSH1 0x20 DUP2 ADD SWAP1 POP PUSH2 0x61A JUMP JUMPDEST DUP7 DUP4 LT ISZERO PUSH2 0x65C JUMPI DUP5 DUP10 ADD MLOAD PUSH2 0x658 PUSH1 0x1F DUP10 AND DUP3 PUSH2 0x56B JUMP JUMPDEST DUP4 SSTORE POP JUMPDEST PUSH1 0x1 PUSH1 0x2 DUP9 MUL ADD DUP9 SSTORE POP POP POP JUMPDEST POP POP POP POP POP POP JUMP JUMPDEST PUSH2 0x886 DUP1 PUSH2 0x67E PUSH0 CODECOPY PUSH0 RETURN INVALID PUSH1 0x80 PUSH1 0x40 MSTORE CALLVALUE DUP1 ISZERO PUSH2 0xF JUMPI PUSH0 DUP1 REVERT JUMPDEST POP PUSH1 0x4 CALLDATASIZE LT PUSH2 0x4A JUMPI PUSH0 CALLDATALOAD PUSH1 0xE0 SHR DUP1 PUSH4 0x3477EE2E EQ PUSH2 0x4E JUMPI DUP1 PUSH4 0xB99EF1FA EQ PUSH2 0x7E JUMPI DUP1 PUSH4 0xDA58C7D9 EQ PUSH2 0xAE JUMPI DUP1 PUSH4 0xFC36E15B EQ PUSH2 0xDE JUMPI JUMPDEST PUSH0 DUP1 REVERT JUMPDEST PUSH2 0x68 PUSH1 0x4 DUP1 CALLDATASIZE SUB DUP2 ADD SWAP1 PUSH2 0x63 SWAP2 SWAP1 PUSH2 0x344 JUMP JUMPDEST PUSH2 0xFA JUMP JUMPDEST PUSH1 0x40 MLOAD PUSH2 0x75 SWAP2 SWAP1 PUSH2 0x3DF JUMP JUMPDEST PUSH1 0x40 MLOAD DUP1 SWAP2 SUB SWAP1 RETURN JUMPDEST PUSH2 0x98 PUSH1 0x4 DUP1 CALLDATASIZE SUB DUP2 ADD SWAP1 PUSH2 0x93 SWAP2 SWAP1 PUSH2 0x52B JUMP JUMPDEST PUSH2 0x19F JUMP JUMPDEST PUSH1 0x40 MLOAD PUSH2 0xA5 SWAP2 SWAP1 PUSH2 0x581 JUMP JUMPDEST PUSH1 0x40 MLOAD DUP1 SWAP2 SUB SWAP1 RETURN JUMPDEST PUSH2 0xC8 PUSH1 0x4 DUP1 CALLDATASIZE SUB DUP2 ADD SWAP1 PUSH2 0xC3 SWAP2 SWAP1 PUSH2 0x344 JUMP JUMPDEST PUSH2 0x1CC JUMP JUMPDEST PUSH1 0x40 MLOAD PUSH2 0xD5 SWAP2 SWAP1 PUSH2 0x5D9 JUMP JUMPDEST PUSH1 0x40 MLOAD DUP1 SWAP2 SUB SWAP1 RETURN JUMPDEST PUSH2 0xF8 PUSH1 0x4 DUP1 CALLDATASIZE SUB DUP2 ADD SWAP1 PUSH2 0xF3 SWAP2 SWAP1 PUSH2 0x52B JUMP JUMPDEST PUSH2 0x207 JUMP JUMPDEST STOP JUMPDEST PUSH0 DUP2 DUP2 SLOAD DUP2 LT PUSH2 0x108 JUMPI PUSH0 DUP1 REVERT JUMPDEST SWAP1 PUSH0 MSTORE PUSH1 0x20 PUSH0 KECCAK256 ADD PUSH0 SWAP2 POP SWAP1 POP DUP1 SLOAD PUSH2 0x120 SWAP1 PUSH2 0x61F JUMP JUMPDEST DUP1 PUSH1 0x1F ADD PUSH1 0x20 DUP1 SWAP2 DIV MUL PUSH1 0x20 ADD PUSH1 0x40 MLOAD SWAP1 DUP2 ADD PUSH1 0x40 MSTORE DUP1 SWAP3 SWAP2 SWAP1 DUP2 DUP2 MSTORE PUSH1 0x20 ADD DUP3 DUP1 SLOAD PUSH2 0x14C SWAP1 PUSH2 0x61F JUMP JUMPDEST DUP1 ISZERO PUSH2 0x197 JUMPI DUP1 PUSH1 0x1F LT PUSH2 0x16E JUMPI PUSH2 0x100 DUP1 DUP4 SLOAD DIV MUL DUP4 MSTORE SWAP2 PUSH1 0x20 ADD SWAP2 PUSH2 0x197 JUMP JUMPDEST DUP3 ADD SWAP2 SWAP1 PUSH0 MSTORE PUSH1 0x20 PUSH0 KECCAK256 SWAP1 JUMPDEST DUP2 SLOAD DUP2 MSTORE SWAP1 PUSH1 0x1 ADD SWAP1 PUSH1 0x20 ADD DUP1 DUP4 GT PUSH2 0x17A JUMPI DUP3 SWAP1 SUB PUSH1 0x1F AND DUP3 ADD SWAP2 JUMPDEST POP POP POP POP POP DUP2 JUMP JUMPDEST PUSH1 0x2 DUP2 DUP1 MLOAD PUSH1 0x20 DUP2 ADD DUP3 ADD DUP1 MLOAD DUP5 DUP3 MSTORE PUSH1 0x20 DUP4 ADD PUSH1 0x20 DUP6 ADD KECCAK256 DUP2 DUP4 MSTORE DUP1 SWAP6 POP POP POP POP POP POP PUSH0 SWAP2 POP SWAP1 POP SLOAD DUP2 JUMP JUMPDEST PUSH1 0x1 DUP2 DUP2 SLOAD DUP2 LT PUSH2 0x1DB JUMPI PUSH0 DUP1 REVERT JUMPDEST SWAP1 PUSH0 MSTORE PUSH1 0x20 PUSH0 KECCAK256 ADD PUSH0 SWAP2 POP SLOAD SWAP1 PUSH2 0x100 EXP SWAP1 DIV PUSH20 0xFFFFFFFFFFFFFFFFFFFFFFFFFFFFFFFFFFFFFFFF AND DUP2 JUMP JUMPDEST DUP1 PUSH0 JUMPDEST PUSH0 DUP1 SLOAD SWAP1 POP DUP2 LT ISZERO PUSH2 0x2C4 JUMPI DUP2 PUSH1 0x40 MLOAD PUSH1 0x20 ADD PUSH2 0x227 SWAP2 SWAP1 PUSH2 0x689 JUMP JUMPDEST PUSH1 0x40 MLOAD PUSH1 0x20 DUP2 DUP4 SUB SUB DUP2 MSTORE SWAP1 PUSH1 0x40 MSTORE DUP1 MLOAD SWAP1 PUSH1 0x20 ADD KECCAK256 PUSH0 DUP3 DUP2 SLOAD DUP2 LT PUSH2 0x250 JUMPI PUSH2 0x24F PUSH2 0x69F JUMP JUMPDEST JUMPDEST SWAP1 PUSH0 MSTORE PUSH1 0x20 PUSH0 KECCAK256 ADD PUSH1 0x40 MLOAD PUSH1 0x20 ADD PUSH2 0x268 SWAP2 SWAP1 PUSH2 0x75E JUMP JUMPDEST PUSH1 0x40 MLOAD PUSH1 0x20 DUP2 DUP4 SUB SUB DUP2 MSTORE SWAP1 PUSH1 0x40 MSTORE DUP1 MLOAD SWAP1 PUSH1 0x20 ADD KECCAK256 SUB PUSH2 0x2B7 JUMPI PUSH1 0x2 DUP4 PUSH1 0x40 MLOAD PUSH2 0x293 SWAP2 SWAP1 PUSH2 0x689 JUMP JUMPDEST SWAP1 DUP2 MSTORE PUSH1 0x20 ADD PUSH1 0x40 MLOAD DUP1 SWAP2 SUB SWAP1 KECCAK256 PUSH0 DUP2 SLOAD DUP1 SWAP3 SWAP2 SWAP1 PUSH2 0x2B1 SWAP1 PUSH2 0x7A1 JUMP JUMPDEST SWAP2 SWAP1 POP SSTORE POP JUMPDEST DUP1 DUP1 PUSH1 0x1 ADD SWAP2 POP POP PUSH2 0x20A JUMP JUMPDEST POP PUSH1 0x40 MLOAD PUSH32 0x8C379A000000000000000000000000000000000000000000000000000000000 DUP2 MSTORE PUSH1 0x4 ADD PUSH2 0x2F7 SWAP1 PUSH2 0x832 JUMP JUMPDEST PUSH1 0x40 MLOAD DUP1 SWAP2 SUB SWAP1 REVERT JUMPDEST PUSH0 PUSH1 0x40 MLOAD SWAP1 POP SWAP1 JUMP JUMPDEST PUSH0 DUP1 REVERT JUMPDEST PUSH0 DUP1 REVERT JUMPDEST PUSH0 DUP2 SWAP1 POP SWAP2 SWAP1 POP JUMP JUMPDEST PUSH2 0x323 DUP2 PUSH2 0x311 JUMP JUMPDEST DUP2 EQ PUSH2 0x32D JUMPI PUSH0 DUP1 REVERT JUMPDEST POP JUMP JUMPDEST PUSH0 DUP2 CALLDATALOAD SWAP1 POP PUSH2 0x33E DUP2 PUSH2 0x31A JUMP JUMPDEST SWAP3 SWAP2 POP POP JUMP JUMPDEST PUSH0 PUSH1 0x20 DUP3 DUP5 SUB SLT ISZERO PUSH2 0x359 JUMPI PUSH2 0x358 PUSH2 0x309 JUMP JUMPDEST JUMPDEST PUSH0 PUSH2 0x366 DUP5 DUP3 DUP6 ADD PUSH2 0x330 JUMP JUMPDEST SWAP2 POP POP SWAP3 SWAP2 POP POP JUMP JUMPDEST PUSH0 DUP2 MLOAD SWAP1 POP SWAP2 SWAP1 POP JUMP JUMPDEST PUSH0 DUP3 DUP3 MSTORE PUSH1 0x20 DUP3 ADD SWAP1 POP SWAP3 SWAP2 POP POP JUMP JUMPDEST DUP3 DUP2 DUP4 MCOPY PUSH0 DUP4 DUP4 ADD MSTORE POP POP POP JUMP JUMPDEST PUSH0 PUSH1 0x1F NOT PUSH1 0x1F DUP4 ADD AND SWAP1 POP SWAP2 SWAP1 POP JUMP JUMPDEST PUSH0 PUSH2 0x3B1 DUP3 PUSH2 0x36F JUMP JUMPDEST PUSH2 0x3BB DUP2 DUP6 PUSH2 0x379 JUMP JUMPDEST SWAP4 POP PUSH2 0x3CB DUP2 DUP6 PUSH1 0x20 DUP7 ADD PUSH2 0x389 JUMP JUMPDEST PUSH2 0x3D4 DUP2 PUSH2 0x397 JUMP JUMPDEST DUP5 ADD SWAP2 POP POP SWAP3 SWAP2 POP POP JUMP JUMPDEST PUSH0 PUSH1 0x20 DUP3 ADD SWAP1 POP DUP2 DUP2 SUB PUSH0 DUP4 ADD MSTORE PUSH2 0x3F7 DUP2 DUP5 PUSH2 0x3A7 JUMP JUMPDEST SWAP1 POP SWAP3 SWAP2 POP POP JUMP JUMPDEST PUSH0 DUP1 REVERT JUMPDEST PUSH0 DUP1 REVERT JUMPDEST PUSH32 0x4E487B7100000000000000000000000000000000000000000000000000000000 PUSH0 MSTORE PUSH1 0x41 PUSH1 0x4 MSTORE PUSH1 0x24 PUSH0 REVERT JUMPDEST PUSH2 0x43D DUP3 PUSH2 0x397 JUMP JUMPDEST DUP2 ADD DUP2 DUP2 LT PUSH8 0xFFFFFFFFFFFFFFFF DUP3 GT OR ISZERO PUSH2 0x45C JUMPI PUSH2 0x45B PUSH2 0x407 JUMP JUMPDEST JUMPDEST DUP1 PUSH1 0x40 MSTORE POP POP POP JUMP JUMPDEST PUSH0 PUSH2 0x46E PUSH2 0x300 JUMP JUMPDEST SWAP1 POP PUSH2 0x47A DUP3 DUP3 PUSH2 0x434 JUMP JUMPDEST SWAP2 SWAP1 POP JUMP JUMPDEST PUSH0 PUSH8 0xFFFFFFFFFFFFFFFF DUP3 GT ISZERO PUSH2 0x499 JUMPI PUSH2 0x498 PUSH2 0x407 JUMP JUMPDEST JUMPDEST PUSH2 0x4A2 DUP3 PUSH2 0x397 JUMP JUMPDEST SWAP1 POP PUSH1 0x20 DUP2 ADD SWAP1 POP SWAP2 SWAP1 POP JUMP JUMPDEST DUP3 DUP2 DUP4 CALLDATACOPY PUSH0 DUP4 DUP4 ADD MSTORE POP POP POP JUMP JUMPDEST PUSH0 PUSH2 0x4CF PUSH2 0x4CA DUP5 PUSH2 0x47F JUMP JUMPDEST PUSH2 0x465 JUMP JUMPDEST SWAP1 POP DUP3 DUP2 MSTORE PUSH1 0x20 DUP2 ADD DUP5 DUP5 DUP5 ADD GT ISZERO PUSH2 0x4EB JUMPI PUSH2 0x4EA PUSH2 0x403 JUMP JUMPDEST JUMPDEST PUSH2 0x4F6 DUP5 DUP3 DUP6 PUSH2 0x4AF JUMP JUMPDEST POP SWAP4 SWAP3 POP POP POP JUMP JUMPDEST PUSH0 DUP3 PUSH1 0x1F DUP4 ADD SLT PUSH2 0x512 JUMPI PUSH2 0x511 PUSH2 0x3FF JUMP JUMPDEST JUMPDEST DUP2 CALLDATALOAD PUSH2 0x522 DUP5 DUP3 PUSH1 0x20 DUP7 ADD PUSH2 0x4BD JUMP JUMPDEST SWAP2 POP POP SWAP3 SWAP2 POP POP JUMP JUMPDEST PUSH0 PUSH1 0x20 DUP3 DUP5 SUB SLT ISZERO PUSH2 0x540 JUMPI PUSH2 0x53F PUSH2 0x309 JUMP JUMPDEST JUMPDEST PUSH0 DUP3 ADD CALLDATALOAD PUSH8 0xFFFFFFFFFFFFFFFF DUP2 GT ISZERO PUSH2 0x55D JUMPI PUSH2 0x55C PUSH2 0x30D JUMP JUMPDEST JUMPDEST PUSH2 0x569 DUP5 DUP3 DUP6 ADD PUSH2 0x4FE JUMP JUMPDEST SWAP2 POP POP SWAP3 SWAP2 POP POP JUMP JUMPDEST PUSH2 0x57B DUP2 PUSH2 0x311 JUMP JUMPDEST DUP3 MSTORE POP POP JUMP JUMPDEST PUSH0 PUSH1 0x20 DUP3 ADD SWAP1 POP PUSH2 0x594 PUSH0 DUP4 ADD DUP5 PUSH2 0x572 JUMP JUMPDEST SWAP3 SWAP2 POP POP JUMP JUMPDEST PUSH0 PUSH20 0xFFFFFFFFFFFFFFFFFFFFFFFFFFFFFFFFFFFFFFFF DUP3 AND SWAP1 POP SWAP2 SWAP1 POP JUMP JUMPDEST PUSH0 PUSH2 0x5C3 DUP3 PUSH2 0x59A JUMP JUMPDEST SWAP1 POP SWAP2 SWAP1 POP JUMP JUMPDEST PUSH2 0x5D3 DUP2 PUSH2 0x5B9 JUMP JUMPDEST DUP3 MSTORE POP POP JUMP JUMPDEST PUSH0 PUSH1 0x20 DUP3 ADD SWAP1 POP PUSH2 0x5EC PUSH0 DUP4 ADD DUP5 PUSH2 0x5CA JUMP JUMPDEST SWAP3 SWAP2 POP POP JUMP JUMPDEST PUSH32 0x4E487B7100000000000000000000000000000000000000000000000000000000 PUSH0 MSTORE PUSH1 0x22 PUSH1 0x4 MSTORE PUSH1 0x24 PUSH0 REVERT JUMPDEST PUSH0 PUSH1 0x2 DUP3 DIV SWAP1 POP PUSH1 0x1 DUP3 AND DUP1 PUSH2 0x636 JUMPI PUSH1 0x7F DUP3 AND SWAP2 POP JUMPDEST PUSH1 0x20 DUP3 LT DUP2 SUB PUSH2 0x649 JUMPI PUSH2 0x648 PUSH2 0x5F2 JUMP JUMPDEST JUMPDEST POP SWAP2 SWAP1 POP JUMP JUMPDEST PUSH0 DUP2 SWAP1 POP SWAP3 SWAP2 POP POP JUMP JUMPDEST PUSH0 PUSH2 0x663 DUP3 PUSH2 0x36F JUMP JUMPDEST PUSH2 0x66D DUP2 DUP6 PUSH2 0x64F JUMP JUMPDEST SWAP4 POP PUSH2 0x67D DUP2 DUP6 PUSH1 0x20 DUP7 ADD PUSH2 0x389 JUMP JUMPDEST DUP1 DUP5 ADD SWAP2 POP POP SWAP3 SWAP2 POP POP JUMP JUMPDEST PUSH0 PUSH2 0x694 DUP3 DUP5 PUSH2 0x659 JUMP JUMPDEST SWAP2 POP DUP2 SWAP1 POP SWAP3 SWAP2 POP POP JUMP JUMPDEST PUSH32 0x4E487B7100000000000000000000000000000000000000000000000000000000 PUSH0 MSTORE PUSH1 0x32 PUSH1 0x4 MSTORE PUSH1 0x24 PUSH0 REVERT JUMPDEST PUSH0 DUP2 SWAP1 POP DUP2 PUSH0 MSTORE PUSH1 0x20 PUSH0 KECCAK256 SWAP1 POP SWAP2 SWAP1 POP JUMP JUMPDEST PUSH0 DUP2 SLOAD PUSH2 0x6EA DUP2 PUSH2 0x61F JUMP JUMPDEST PUSH2 0x6F4 DUP2 DUP7 PUSH2 0x64F JUMP JUMPDEST SWAP5 POP PUSH1 0x1 DUP3 AND PUSH0 DUP2 EQ PUSH2 0x70E JUMPI PUSH1 0x1 DUP2 EQ PUSH2 0x723 JUMPI PUSH2 0x755 JUMP JUMPDEST PUSH1 0xFF NOT DUP4 AND DUP7 MSTORE DUP2 ISZERO ISZERO DUP3 MUL DUP7 ADD SWAP4 POP PUSH2 0x755 JUMP JUMPDEST PUSH2 0x72C DUP6 PUSH2 0x6CC JUMP JUMPDEST PUSH0 JUMPDEST DUP4 DUP2 LT ISZERO PUSH2 0x74D JUMPI DUP2 SLOAD DUP2 DUP10 ADD MSTORE PUSH1 0x1 DUP3 ADD SWAP2 POP PUSH1 0x20 DUP2 ADD SWAP1 POP PUSH2 0x72E JUMP JUMPDEST DUP4 DUP9 ADD SWAP6 POP POP POP JUMPDEST POP POP POP SWAP3 SWAP2 POP POP JUMP JUMPDEST PUSH0 PUSH2 0x769 DUP3 DUP5 PUSH2 0x6DE JUMP JUMPDEST SWAP2 POP DUP2 SWAP1 POP SWAP3 SWAP2 POP POP JUMP JUMPDEST PUSH32 0x4E487B7100000000000000000000000000000000000000000000000000000000 PUSH0 MSTORE PUSH1 0x11 PUSH1 0x4 MSTORE PUSH1 0x24 PUSH0 REVERT JUMPDEST PUSH0 PUSH2 0x7AB DUP3 PUSH2 0x311 JUMP JUMPDEST SWAP2 POP PUSH32 0xFFFFFFFFFFFFFFFFFFFFFFFFFFFFFFFFFFFFFFFFFFFFFFFFFFFFFFFFFFFFFFFF DUP3 SUB PUSH2 0x7DD JUMPI PUSH2 0x7DC PUSH2 0x774 JUMP JUMPDEST JUMPDEST PUSH1 0x1 DUP3 ADD SWAP1 POP SWAP2 SWAP1 POP JUMP JUMPDEST PUSH32 0x496E76616C69642063616E6469646174652E0000000000000000000000000000 PUSH0 DUP3 ADD MSTORE POP JUMP JUMPDEST PUSH0 PUSH2 0x81C PUSH1 0x12 DUP4 PUSH2 0x379 JUMP JUMPDEST SWAP2 POP PUSH2 0x827 DUP3 PUSH2 0x7E8 JUMP JUMPDEST PUSH1 0x20 DUP3 ADD SWAP1 POP SWAP2 SWAP1 POP JUMP JUMPDEST PUSH0 PUSH1 0x20 DUP3 ADD SWAP1 POP DUP2 DUP2 SUB PUSH0 DUP4 ADD MSTORE PUSH2 0x849 DUP2 PUSH2 0x810 JUMP JUMPDEST SWAP1 POP SWAP2 SWAP1 POP JUMP INVALID LOG2 PUSH5 0x6970667358 0x22 SLT KECCAK256 SIGNEXTEND 0xDB SDIV SWAP11 0xA5 0x21 0xC 0xBB 0xDE 0xC SLOAD BYTE SMOD DUP7 0xC8 0xE2 0x27 SSTORE JUMPI 0xBE PUSH22 0xA618D671052AECA37715364736F6C63430008190033 "
				},
				"gasEstimates": {
					"creation": {
						"codeDepositCost": "436400",
						"executionCost": "infinite",
						"totalCost": "infinite"
					},
					"external": {
						"candidates(uint256)": "infinite",
						"vote(string)": "infinite",
						"voters(uint256)": "4966",
						"votes(string)": "infinite"
					}
				},
				"methodIdentifiers": {
					"candidates(uint256)": "3477ee2e",
					"vote(string)": "fc36e15b",
					"voters(uint256)": "da58c7d9",
					"votes(string)": "b99ef1fa"
				}
			},
			"storageLayout": {
				"storage": [
					{
						"astId": 4,
						"contract": "vote.sol:Vote",
						"label": "candidates",
						"offset": 0,
						"slot": "0",
						"type": "t_array(t_string_storage)dyn_storage"
					},
					{
						"astId": 7,
						"contract": "vote.sol:Vote",
						"label": "voters",
						"offset": 0,
						"slot": "1",
						"type": "t_array(t_address)dyn_storage"
					},
					{
						"astId": 11,
						"contract": "vote.sol:Vote",
						"label": "votes",
						"offset": 0,
						"slot": "2",
						"type": "t_mapping(t_string_memory_ptr,t_uint256)"
					}
				],
				"types": {
					"t_address": {
						"encoding": "inplace",
						"label": "address",
						"numberOfBytes": "20"
					},
					"t_array(t_address)dyn_storage": {
						"base": "t_address",
						"encoding": "dynamic_array",
						"label": "address[]",
						"numberOfBytes": "32"
					},
					"t_array(t_string_storage)dyn_storage": {
						"base": "t_string_storage",
						"encoding": "dynamic_array",
						"label": "string[]",
						"numberOfBytes": "32"
					},
					"t_mapping(t_string_memory_ptr,t_uint256)": {
						"encoding": "mapping",
						"key": "t_string_memory_ptr",
						"label": "mapping(string => uint256)",
						"numberOfBytes": "32",
						"value": "t_uint256"
					},
					"t_string_memory_ptr": {
						"encoding": "bytes",
						"label": "string",
						"numberOfBytes": "32"
					},
					"t_string_storage": {
						"encoding": "bytes",
						"label": "string",
						"numberOfBytes": "32"
					},
					"t_uint256": {
						"encoding": "inplace",
						"label": "uint256",
						"numberOfBytes": "32"
					}
				}
			},
			"userdoc": {
				"kind": "user",
				"methods": {},
				"version": 1
			}
		}
	}
}